{
  "_format": "hh-sol-artifact-1",
  "contractName": "LendingPool",
  "sourceName": "contracts/LendingPool.sol",
  "abi": [
    {
      "inputs": [],
      "stateMutability": "nonpayable",
      "type": "constructor"
    },
    {
      "anonymous": false,
      "inputs": [
        {
          "indexed": true,
          "internalType": "bytes32",
          "name": "id",
          "type": "bytes32"
        }
      ],
      "name": "ChainlinkCancelled",
      "type": "event"
    },
    {
      "anonymous": false,
      "inputs": [
        {
          "indexed": true,
          "internalType": "bytes32",
          "name": "id",
          "type": "bytes32"
        }
      ],
      "name": "ChainlinkFulfilled",
      "type": "event"
    },
    {
      "anonymous": false,
      "inputs": [
        {
          "indexed": true,
          "internalType": "bytes32",
          "name": "id",
          "type": "bytes32"
        }
      ],
      "name": "ChainlinkRequested",
      "type": "event"
    },
    {
      "anonymous": false,
      "inputs": [
        {
          "indexed": true,
          "internalType": "address",
          "name": "from",
          "type": "address"
        },
        {
          "indexed": true,
          "internalType": "address",
          "name": "to",
          "type": "address"
        }
      ],
      "name": "OwnershipTransferRequested",
      "type": "event"
    },
    {
      "anonymous": false,
      "inputs": [
        {
          "indexed": true,
          "internalType": "address",
          "name": "from",
          "type": "address"
        },
        {
          "indexed": true,
          "internalType": "address",
          "name": "to",
          "type": "address"
        }
      ],
      "name": "OwnershipTransferred",
      "type": "event"
    },
    {
      "inputs": [],
      "name": "acceptOwnership",
      "outputs": [],
      "stateMutability": "nonpayable",
      "type": "function"
    },
    {
      "inputs": [
        {
          "internalType": "address",
          "name": "_nft",
          "type": "address"
        }
      ],
      "name": "addWhitelisted",
      "outputs": [],
      "stateMutability": "nonpayable",
      "type": "function"
    },
    {
      "inputs": [
        {
          "internalType": "uint128",
          "name": "_duration",
          "type": "uint128"
        },
        {
          "internalType": "uint256",
          "name": "_amount",
          "type": "uint256"
        },
        {
          "internalType": "address",
          "name": "_nftAddress",
          "type": "address"
        },
        {
          "internalType": "uint256",
          "name": "_tokenId",
          "type": "uint256"
        }
      ],
      "name": "createInstantLoan",
      "outputs": [
        {
          "internalType": "bool",
          "name": "",
          "type": "bool"
        }
      ],
      "stateMutability": "nonpayable",
      "type": "function"
    },
    {
      "inputs": [
        {
          "internalType": "bytes32",
          "name": "_requestId",
          "type": "bytes32"
        },
        {
          "internalType": "uint256",
          "name": "_price",
          "type": "uint256"
        }
      ],
      "name": "fulfill",
      "outputs": [],
      "stateMutability": "nonpayable",
      "type": "function"
    },
    {
      "inputs": [],
      "name": "getPoolLoans",
      "outputs": [
        {
          "internalType": "address[]",
          "name": "_loans",
          "type": "address[]"
        }
      ],
      "stateMutability": "view",
      "type": "function"
    },
    {
      "inputs": [
        {
          "internalType": "uint256",
          "name": "_id",
          "type": "uint256"
        }
      ],
      "name": "getSpecificLoan",
      "outputs": [
        {
          "internalType": "address",
          "name": "borrower",
          "type": "address"
        },
        {
          "internalType": "uint128",
          "name": "duration",
          "type": "uint128"
        },
        {
          "internalType": "uint128",
          "name": "_apr",
          "type": "uint128"
        },
        {
          "internalType": "uint256",
          "name": "tokenIds",
          "type": "uint256"
        },
        {
          "internalType": "uint256",
          "name": "amount",
          "type": "uint256"
        },
        {
          "internalType": "uint256",
          "name": "loanIds",
          "type": "uint256"
        },
        {
          "internalType": "address",
          "name": "lender",
          "type": "address"
        },
        {
          "internalType": "address",
          "name": "nftAddress",
          "type": "address"
        },
        {
          "internalType": "uint256",
          "name": "startTime",
          "type": "uint256"
        },
        {
          "internalType": "uint256",
          "name": "loanState",
          "type": "uint256"
        }
      ],
      "stateMutability": "view",
      "type": "function"
    },
    {
      "inputs": [],
      "name": "owner",
      "outputs": [
        {
          "internalType": "address",
          "name": "",
          "type": "address"
        }
      ],
      "stateMutability": "view",
      "type": "function"
    },
    {
      "inputs": [
        {
          "internalType": "uint256",
          "name": "_amount",
          "type": "uint256"
        }
      ],
      "name": "provide_lp",
      "outputs": [],
      "stateMutability": "nonpayable",
      "type": "function"
    },
    {
      "inputs": [
        {
          "internalType": "address",
          "name": "_nft",
          "type": "address"
        }
      ],
      "name": "removeWhitelist",
      "outputs": [],
      "stateMutability": "nonpayable",
      "type": "function"
    },
    {
      "inputs": [
        {
          "internalType": "uint256",
          "name": "_share_amount",
          "type": "uint256"
        }
      ],
      "name": "remove_lp",
      "outputs": [],
      "stateMutability": "nonpayable",
      "type": "function"
    },
    {
      "inputs": [
        {
          "internalType": "address",
          "name": "to",
          "type": "address"
        }
      ],
      "name": "transferOwnership",
      "outputs": [],
      "stateMutability": "nonpayable",
      "type": "function"
    }
  ],
  "bytecode": "0x608060405260016004553480156200001657600080fd5b50338060008073ffffffffffffffffffffffffffffffffffffffff168273ffffffffffffffffffffffffffffffffffffffff1614156200008d576040517f08c379a000000000000000000000000000000000000000000000000000000000815260040162000084906200046c565b60405180910390fd5b81600660006101000a81548173ffffffffffffffffffffffffffffffffffffffff021916908373ffffffffffffffffffffffffffffffffffffffff160217905550600073ffffffffffffffffffffffffffffffffffffffff168173ffffffffffffffffffffffffffffffffffffffff1614620001155762000114816200025160201b60201c565b5b50505060006010819055506014601260006101000a8154816fffffffffffffffffffffffffffffffff02191690836fffffffffffffffffffffffffffffffff16021790555073a6fa4fb5f76172d178d61b04b0ecd319c5d1c0aa601360006101000a81548173ffffffffffffffffffffffffffffffffffffffff021916908373ffffffffffffffffffffffffffffffffffffffff160217905550620001d473326c977e6efc84e512bb9c30f76e30c160ed06fb6200038360201b60201c565b620001f97340193c8518bb267228fc409a613bdbd8ec5a97b3620003c760201b60201c565b7f6361393833363663633733313439353762386330313263373266303561656562600a81905550600a670de0b6b3a76400006001620002399190620004c7565b62000245919062000557565b600b8190555062000601565b3373ffffffffffffffffffffffffffffffffffffffff168173ffffffffffffffffffffffffffffffffffffffff161415620002c3576040517f08c379a0000000000000000000000000000000000000000000000000000000008152600401620002ba90620005df565b60405180910390fd5b80600760006101000a81548173ffffffffffffffffffffffffffffffffffffffff021916908373ffffffffffffffffffffffffffffffffffffffff1602179055508073ffffffffffffffffffffffffffffffffffffffff16600660009054906101000a900473ffffffffffffffffffffffffffffffffffffffff1673ffffffffffffffffffffffffffffffffffffffff167fed8889f560326eb138920d842192f0eb3dd22b4f139c87a2c57538e05bae127860405160405180910390a350565b80600260006101000a81548173ffffffffffffffffffffffffffffffffffffffff021916908373ffffffffffffffffffffffffffffffffffffffff16021790555050565b80600360006101000a81548173ffffffffffffffffffffffffffffffffffffffff021916908373ffffffffffffffffffffffffffffffffffffffff16021790555050565b600082825260208201905092915050565b7f43616e6e6f7420736574206f776e657220746f207a65726f0000000000000000600082015250565b6000620004546018836200040b565b915062000461826200041c565b602082019050919050565b60006020820190508181036000830152620004878162000445565b9050919050565b6000819050919050565b7f4e487b7100000000000000000000000000000000000000000000000000000000600052601160045260246000fd5b6000620004d4826200048e565b9150620004e1836200048e565b9250817fffffffffffffffffffffffffffffffffffffffffffffffffffffffffffffffff04831182151516156200051d576200051c62000498565b5b828202905092915050565b7f4e487b7100000000000000000000000000000000000000000000000000000000600052601260045260246000fd5b600062000564826200048e565b915062000571836200048e565b92508262000584576200058362000528565b5b828204905092915050565b7f43616e6e6f74207472616e7366657220746f2073656c66000000000000000000600082015250565b6000620005c76017836200040b565b9150620005d4826200058f565b602082019050919050565b60006020820190508181036000830152620005fa81620005b8565b9050919050565b614d6380620006116000396000f3fe60806040523480156200001157600080fd5b5060043610620000b85760003560e01c806379ba5097116200007b57806379ba5097146200015f578063847d3c73146200016b5780638da5cb5b14620001a1578063c7a0e74b14620001c3578063f2d31d4614620001e3578063f2fde38b146200022257620000b8565b806310154bad14620000bd5780634357855e14620000dd5780634dff7ec314620000fd57806361ad5c9d146200011f57806378c8cda7146200013f575b600080fd5b620000db6004803603810190620000d5919062002759565b62000242565b005b620000fb6004803603810190620000f5919062002801565b620002a7565b005b62000107620003bb565b60405162000116919062002916565b60405180910390f35b6200013d60048036038101906200013791906200293a565b620004ba565b005b6200015d600480360381019062000157919062002759565b6200052c565b005b6200016962000591565b005b620001896004803603810190620001839190620029b9565b6200072b565b60405162000198919062002a48565b60405180910390f35b620001ab62000beb565b604051620001ba919062002a76565b60405180910390f35b620001e16004803603810190620001db91906200293a565b62000c15565b005b620002016004803603810190620001fb91906200293a565b62000e4b565b604051620002199a9998979695949392919062002ab5565b60405180910390f35b6200024060048036038101906200023a919062002759565b6200158d565b005b6200024c620015a5565b6001600e60008373ffffffffffffffffffffffffffffffffffffffff1673ffffffffffffffffffffffffffffffffffffffff16815260200190815260200160002060006101000a81548160ff02191690831515021790555050565b816005600082815260200190815260200160002060009054906101000a900473ffffffffffffffffffffffffffffffffffffffff1673ffffffffffffffffffffffffffffffffffffffff163373ffffffffffffffffffffffffffffffffffffffff16146200034c576040517f08c379a0000000000000000000000000000000000000000000000000000000008152600401620003439062002bec565b60405180910390fd5b6005600082815260200190815260200160002060006101000a81549073ffffffffffffffffffffffffffffffffffffffff0219169055807f7cc135e0cebb02c3480ae5d74d377283180a2601f8f644edf7987b009316c63a60405160405180910390a281600881905550505050565b6060600c5467ffffffffffffffff811115620003dc57620003db62002c0e565b5b6040519080825280602002602001820160405280156200040b5781602001602082028036833780820191505090505b50905060005b600c54811015620004b657600d600082815260200190815260200160002060009054906101000a900473ffffffffffffffffffffffffffffffffffffffff1682828151811062000466576200046562002c3d565b5b602002602001019073ffffffffffffffffffffffffffffffffffffffff16908173ffffffffffffffffffffffffffffffffffffffff16815250508080620004ad9062002c9b565b91505062000411565b5090565b6000811162000500576040517f08c379a0000000000000000000000000000000000000000000000000000000008152600401620004f79062002d39565b60405180910390fd5b600060115414156200051d5762000517816200163a565b62000529565b62000528816200178a565b5b50565b62000536620015a5565b6000600e60008373ffffffffffffffffffffffffffffffffffffffff1673ffffffffffffffffffffffffffffffffffffffff16815260200190815260200160002060006101000a81548160ff02191690831515021790555050565b600760009054906101000a900473ffffffffffffffffffffffffffffffffffffffff1673ffffffffffffffffffffffffffffffffffffffff163373ffffffffffffffffffffffffffffffffffffffff161462000624576040517f08c379a00000000000000000000000000000000000000000000000000000000081526004016200061b9062002dab565b60405180910390fd5b6000600660009054906101000a900473ffffffffffffffffffffffffffffffffffffffff16905033600660006101000a81548173ffffffffffffffffffffffffffffffffffffffff021916908373ffffffffffffffffffffffffffffffffffffffff1602179055506000600760006101000a81548173ffffffffffffffffffffffffffffffffffffffff021916908373ffffffffffffffffffffffffffffffffffffffff1602179055503373ffffffffffffffffffffffffffffffffffffffff168173ffffffffffffffffffffffffffffffffffffffff167f8be0079c531659141344cd1fd0a4f28419497f9722a3daafe3b4186f6b6457e060405160405180910390a350565b600082600e60008273ffffffffffffffffffffffffffffffffffffffff1673ffffffffffffffffffffffffffffffffffffffff16815260200190815260200160002060009054906101000a900460ff16620007bd576040517f08c379a0000000000000000000000000000000000000000000000000000000008152600401620007b49062002e1d565b60405180910390fd5b620007c7620018f7565b50600a6005600854620007db919062002e3f565b620007e7919062002ecf565b8511156200082c576040517f08c379a0000000000000000000000000000000000000000000000000000000008152600401620008239062002f57565b60405180910390fd5b60646046601360009054906101000a900473ffffffffffffffffffffffffffffffffffffffff1673ffffffffffffffffffffffffffffffffffffffff166370a08231306040518263ffffffff1660e01b81526004016200088d919062002a76565b60206040518083038186803b158015620008a657600080fd5b505afa158015620008bb573d6000803e3d6000fd5b505050506040513d601f19601f82011682018060405250810190620008e1919062002f90565b620008ed919062002e3f565b620008f9919062002ecf565b8511156200093e576040517f08c379a0000000000000000000000000000000000000000000000000000000008152600401620009359062003012565b60405180910390fd5b6000600c549050600c60008154809291906200095a9062002c9b565b9190505550618e94601260009054906101000a90046fffffffffffffffffffffffffffffffff166fffffffffffffffffffffffffffffffff16886fffffffffffffffffffffffffffffffff1688620009b3919062002e3f565b620009bf919062002e3f565b620009cb919062002ecf565b86620009d8919062003034565b60116000828254620009eb919062003034565b925050819055506000338888601260009054906101000a90046fffffffffffffffffffffffffffffffff1685308b8b60405162000a289062002658565b62000a3b98979695949392919062003091565b604051809103906000f08015801562000a58573d6000803e3d6000fd5b50905080600d600084815260200190815260200160002060006101000a81548173ffffffffffffffffffffffffffffffffffffffff021916908373ffffffffffffffffffffffffffffffffffffffff16021790555060008690508073ffffffffffffffffffffffffffffffffffffffff166323b872dd3384896040518463ffffffff1660e01b815260040162000af1939291906200311f565b600060405180830381600087803b15801562000b0c57600080fd5b505af115801562000b21573d6000803e3d6000fd5b50505050601360009054906101000a900473ffffffffffffffffffffffffffffffffffffffff1673ffffffffffffffffffffffffffffffffffffffff1663a9059cbb338a6040518363ffffffff1660e01b815260040162000b849291906200315c565b602060405180830381600087803b15801562000b9f57600080fd5b505af115801562000bb4573d6000803e3d6000fd5b505050506040513d601f19601f8201168201806040525081019062000bda9190620031ba565b506001945050505050949350505050565b6000600660009054906101000a900473ffffffffffffffffffffffffffffffffffffffff16905090565b6000811162000c5b576040517f08c379a000000000000000000000000000000000000000000000000000000000815260040162000c529062002d39565b60405180910390fd5b600f60003373ffffffffffffffffffffffffffffffffffffffff1673ffffffffffffffffffffffffffffffffffffffff1681526020019081526020016000205481111562000ce0576040517f08c379a000000000000000000000000000000000000000000000000000000000815260040162000cd7906200323c565b60405180910390fd5b60006010548260115462000cf5919062002e3f565b62000d01919062002ecf565b9050806011600082825462000d1791906200325e565b92505081905550816010600082825462000d3291906200325e565b9250508190555081600f60003373ffffffffffffffffffffffffffffffffffffffff1673ffffffffffffffffffffffffffffffffffffffff168152602001908152602001600020600082825462000d8a91906200325e565b92505081905550601360009054906101000a900473ffffffffffffffffffffffffffffffffffffffff1673ffffffffffffffffffffffffffffffffffffffff1663a9059cbb33836040518363ffffffff1660e01b815260040162000df09291906200315c565b602060405180830381600087803b15801562000e0b57600080fd5b505af115801562000e20573d6000803e3d6000fd5b505050506040513d601f19601f8201168201806040525081019062000e469190620031ba565b505050565b600080600080600080600080600080600d60008c815260200190815260200160002060009054906101000a900473ffffffffffffffffffffffffffffffffffffffff1673ffffffffffffffffffffffffffffffffffffffff16631cb0c3e76040518163ffffffff1660e01b815260040160206040518083038186803b15801562000ed457600080fd5b505afa15801562000ee9573d6000803e3d6000fd5b505050506040513d601f19601f8201168201806040525081019062000f0f9190620032b0565b9950600d60008c815260200190815260200160002060009054906101000a900473ffffffffffffffffffffffffffffffffffffffff1673ffffffffffffffffffffffffffffffffffffffff1663ad2e8c9b6040518163ffffffff1660e01b815260040160206040518083038186803b15801562000f8b57600080fd5b505afa15801562000fa0573d6000803e3d6000fd5b505050506040513d601f19601f8201168201806040525081019062000fc69190620032f9565b9850600d60008c815260200190815260200160002060009054906101000a900473ffffffffffffffffffffffffffffffffffffffff1673ffffffffffffffffffffffffffffffffffffffff1663c89d5b8b6040518163ffffffff1660e01b815260040160206040518083038186803b1580156200104257600080fd5b505afa15801562001057573d6000803e3d6000fd5b505050506040513d601f19601f820116820180604052508101906200107d9190620032f9565b9750600d60008c815260200190815260200160002060009054906101000a900473ffffffffffffffffffffffffffffffffffffffff1673ffffffffffffffffffffffffffffffffffffffff1663010a38f56040518163ffffffff1660e01b815260040160206040518083038186803b158015620010f957600080fd5b505afa1580156200110e573d6000803e3d6000fd5b505050506040513d601f19601f8201168201806040525081019062001134919062002f90565b9650600d60008c815260200190815260200160002060009054906101000a900473ffffffffffffffffffffffffffffffffffffffff1673ffffffffffffffffffffffffffffffffffffffff1663d321fe296040518163ffffffff1660e01b815260040160206040518083038186803b158015620011b057600080fd5b505afa158015620011c5573d6000803e3d6000fd5b505050506040513d601f19601f82011682018060405250810190620011eb919062002f90565b9550600d60008c815260200190815260200160002060009054906101000a900473ffffffffffffffffffffffffffffffffffffffff1673ffffffffffffffffffffffffffffffffffffffff1663548405266040518163ffffffff1660e01b815260040160206040518083038186803b1580156200126757600080fd5b505afa1580156200127c573d6000803e3d6000fd5b505050506040513d601f19601f82011682018060405250810190620012a2919062002f90565b9450600d60008c815260200190815260200160002060009054906101000a900473ffffffffffffffffffffffffffffffffffffffff1673ffffffffffffffffffffffffffffffffffffffff16639861f3e56040518163ffffffff1660e01b815260040160206040518083038186803b1580156200131e57600080fd5b505afa15801562001333573d6000803e3d6000fd5b505050506040513d601f19601f82011682018060405250810190620013599190620032b0565b9350600d60008c815260200190815260200160002060009054906101000a900473ffffffffffffffffffffffffffffffffffffffff1673ffffffffffffffffffffffffffffffffffffffff166388a6360e6040518163ffffffff1660e01b815260040160206040518083038186803b158015620013d557600080fd5b505afa158015620013ea573d6000803e3d6000fd5b505050506040513d601f19601f82011682018060405250810190620014109190620032b0565b9250600d60008c815260200190815260200160002060009054906101000a900473ffffffffffffffffffffffffffffffffffffffff1673ffffffffffffffffffffffffffffffffffffffff1663c828371e6040518163ffffffff1660e01b815260040160206040518083038186803b1580156200148c57600080fd5b505afa158015620014a1573d6000803e3d6000fd5b505050506040513d601f19601f82011682018060405250810190620014c7919062002f90565b9150600d60008c815260200190815260200160002060009054906101000a900473ffffffffffffffffffffffffffffffffffffffff1673ffffffffffffffffffffffffffffffffffffffff16634e69d5606040518163ffffffff1660e01b815260040160206040518083038186803b1580156200154357600080fd5b505afa15801562001558573d6000803e3d6000fd5b505050506040513d601f19601f820116820180604052508101906200157e919062002f90565b90509193959799509193959799565b62001597620015a5565b620015a28162001a66565b50565b600660009054906101000a900473ffffffffffffffffffffffffffffffffffffffff1673ffffffffffffffffffffffffffffffffffffffff163373ffffffffffffffffffffffffffffffffffffffff161462001638576040517f08c379a00000000000000000000000000000000000000000000000000000000081526004016200162f906200337b565b60405180910390fd5b565b600060649050816011600082825462001654919062003034565b9250508190555080601060008282546200166f919062003034565b9250508190555080600f60003373ffffffffffffffffffffffffffffffffffffffff1673ffffffffffffffffffffffffffffffffffffffff1681526020019081526020016000206000828254620016c7919062003034565b92505081905550601360009054906101000a900473ffffffffffffffffffffffffffffffffffffffff1673ffffffffffffffffffffffffffffffffffffffff166323b872dd3330856040518463ffffffff1660e01b81526004016200172f939291906200311f565b602060405180830381600087803b1580156200174a57600080fd5b505af11580156200175f573d6000803e3d6000fd5b505050506040513d601f19601f82011682018060405250810190620017859190620031ba565b505050565b6000601154601054836200179f919062002e3f565b620017ab919062002ecf565b90508160116000828254620017c1919062003034565b925050819055508060106000828254620017dc919062003034565b9250508190555080600f60003373ffffffffffffffffffffffffffffffffffffffff1673ffffffffffffffffffffffffffffffffffffffff168152602001908152602001600020600082825462001834919062003034565b92505081905550601360009054906101000a900473ffffffffffffffffffffffffffffffffffffffff1673ffffffffffffffffffffffffffffffffffffffff166323b872dd3330856040518463ffffffff1660e01b81526004016200189c939291906200311f565b602060405180830381600087803b158015620018b757600080fd5b505af1158015620018cc573d6000803e3d6000fd5b505050506040513d601f19601f82011682018060405250810190620018f29190620031ba565b505050565b60008062001910600a5430634357855e60e01b62001b98565b9050620019776040518060400160405280600381526020017f67657400000000000000000000000000000000000000000000000000000000008152506040518060c001604052806081815260200162004cad608191398362001bcf9092919063ffffffff16565b620019f86040518060400160405280600481526020017f70617468000000000000000000000000000000000000000000000000000000008152506040518060400160405280601681526020017f737461746973746963732c666c6f6f725f7072696365000000000000000000008152508362001bcf9092919063ffffffff16565b6000670de0b6b3a7640000905062001a516040518060400160405280600581526020017f74696d6573000000000000000000000000000000000000000000000000000000815250828462001c069092919063ffffffff16565b62001a5f82600b5462001c3d565b9250505090565b3373ffffffffffffffffffffffffffffffffffffffff168173ffffffffffffffffffffffffffffffffffffffff16141562001ad8576040517f08c379a000000000000000000000000000000000000000000000000000000000815260040162001acf90620033ed565b60405180910390fd5b80600760006101000a81548173ffffffffffffffffffffffffffffffffffffffff021916908373ffffffffffffffffffffffffffffffffffffffff1602179055508073ffffffffffffffffffffffffffffffffffffffff16600660009054906101000a900473ffffffffffffffffffffffffffffffffffffffff1673ffffffffffffffffffffffffffffffffffffffff167fed8889f560326eb138920d842192f0eb3dd22b4f139c87a2c57538e05bae127860405160405180910390a350565b62001ba262002666565b62001bac62002666565b62001bc58585858462001c76909392919063ffffffff16565b9150509392505050565b62001be882846080015162001d2a90919063ffffffff16565b62001c0181846080015162001d2a90919063ffffffff16565b505050565b62001c1f82846080015162001d2a90919063ffffffff16565b62001c3881846080015162001d5390919063ffffffff16565b505050565b600062001c6e600360009054906101000a900473ffffffffffffffffffffffffffffffffffffffff16848462001e10565b905092915050565b62001c8062002666565b62001c92856080015161010062001ee2565b508385600001818152505082856020019073ffffffffffffffffffffffffffffffffffffffff16908173ffffffffffffffffffffffffffffffffffffffff16815250508185604001907bffffffffffffffffffffffffffffffffffffffffffffffffffffffff191690817bffffffffffffffffffffffffffffffffffffffffffffffffffffffff191681525050849050949350505050565b62001d39826003835162001f57565b62001d4e8183620020f690919063ffffffff16565b505050565b7fffffffffffffffffffffffffffffffffffffffffffffffff000000000000000081121562001d8e5762001d8882826200211c565b62001e0c565b67ffffffffffffffff81131562001db15762001dab82826200219b565b62001e0b565b6000811262001dce5762001dc88260008362001f57565b62001e0a565b62001e09826001837fffffffffffffffffffffffffffffffffffffffffffffffffffffffffffffffff62001e03919062003419565b62001f57565b5b5b5b5050565b600080600454905060018162001e27919062003034565b6004819055506000634042994660e01b60008087600001513089604001518760018c608001516000015160405160240162001e6a989796959493929190620035a9565b604051602081830303815290604052907bffffffffffffffffffffffffffffffffffffffffffffffffffffffff19166020820180517bffffffffffffffffffffffffffffffffffffffffffffffffffffffff8381831617835250505050905062001ed786838684620021ed565b925050509392505050565b62001eec620026d5565b600060208362001efd91906200363e565b1462001f305760208262001f1291906200363e565b602062001f2091906200325e565b8262001f2d919062003034565b91505b81836020018181525050604051808452600081528281016020016040525082905092915050565b60178167ffffffffffffffff161162001f925762001f8b8160058460ff16901b60ff1617846200239c90919063ffffffff16565b50620020f1565b60ff8167ffffffffffffffff161162001fee5762001fc4601860058460ff16901b17846200239c90919063ffffffff16565b5062001fe78167ffffffffffffffff16600185620023c09092919063ffffffff16565b50620020f0565b61ffff8167ffffffffffffffff16116200204b5762002021601960058460ff16901b17846200239c90919063ffffffff16565b50620020448167ffffffffffffffff16600285620023c09092919063ffffffff16565b50620020ef565b63ffffffff8167ffffffffffffffff1611620020aa5762002080601a60058460ff16901b17846200239c90919063ffffffff16565b50620020a38167ffffffffffffffff16600485620023c09092919063ffffffff16565b50620020ee565b620020c9601b60058460ff16901b17846200239c90919063ffffffff16565b50620020ec8167ffffffffffffffff16600885620023c09092919063ffffffff16565b505b5b5b5b505050565b62002100620026d5565b6200211483846000015151848551620023e6565b905092915050565b6200213c60036005600660ff16901b17836200239c90919063ffffffff16565b506200219782827fffffffffffffffffffffffffffffffffffffffffffffffffffffffffffffffff62002170919062003419565b60405160200162002182919062003676565b604051602081830303815290604052620024ec565b5050565b620021bb60026005600660ff16901b17836200239c90919063ffffffff16565b50620021e98282604051602001620021d4919062003676565b604051602081830303815290604052620024ec565b5050565b600030846040516020016200220492919062003762565b604051602081830303815290604052805190602001209050846005600083815260200190815260200160002060006101000a81548173ffffffffffffffffffffffffffffffffffffffff021916908373ffffffffffffffffffffffffffffffffffffffff160217905550807fb5e6e01e79f91267dc17b4e6314d5d4d03593d2ceee0fbb452b750bd70ea5af960405160405180910390a2600260009054906101000a900473ffffffffffffffffffffffffffffffffffffffff1673ffffffffffffffffffffffffffffffffffffffff16634000aea08685856040518463ffffffff1660e01b8152600401620022fc9392919062003792565b602060405180830381600087803b1580156200231757600080fd5b505af11580156200232c573d6000803e3d6000fd5b505050506040513d601f19601f82011682018060405250810190620023529190620031ba565b62002394576040517f08c379a00000000000000000000000000000000000000000000000000000000081526004016200238b906200384c565b60405180910390fd5b949350505050565b620023a6620026d5565b620023b8838460000151518462002515565b905092915050565b620023ca620026d5565b620023dd84856000015151858562002574565b90509392505050565b620023f0620026d5565b8251821115620023ff57600080fd5b8460200151828562002412919062003034565b111562002450576200244f8560026200243d8860200151888762002437919062003034565b62002612565b62002449919062002e3f565b62002630565b5b600080865180518760208301019350808887011115620024705787860182525b60208701925050505b60208410620024bf578051825260208262002495919062003034565b9150602081620024a6919062003034565b9050602084620024b791906200325e565b935062002479565b60006001856020036101000a03905080198251168184511681811785525050508692505050949350505050565b620024fb826002835162001f57565b620025108183620020f690919063ffffffff16565b505050565b6200251f620026d5565b836020015183106200254a5762002549846002866020015162002543919062002e3f565b62002630565b5b835180516020858301018481538186141562002567576001820183525b5050508390509392505050565b6200257e620026d5565b8460200151848362002591919062003034565b1115620025c057620025bf8560028685620025ad919062003034565b620025b9919062002e3f565b62002630565b5b6000600183610100620025d49190620039c2565b620025e091906200325e565b90508551838682010185831982511617815281518588011115620026045784870182525b505085915050949350505050565b60008183111562002626578290506200262a565b8190505b92915050565b60008260000151905062002645838362001ee2565b50620026528382620020f6565b50505050565b6112998062003a1483390190565b6040518060a0016040528060008019168152602001600073ffffffffffffffffffffffffffffffffffffffff16815260200160007bffffffffffffffffffffffffffffffffffffffffffffffffffffffff1916815260200160008152602001620026cf620026d5565b81525090565b604051806040016040528060608152602001600081525090565b600080fd5b600073ffffffffffffffffffffffffffffffffffffffff82169050919050565b60006200272182620026f4565b9050919050565b620027338162002714565b81146200273f57600080fd5b50565b600081359050620027538162002728565b92915050565b600060208284031215620027725762002771620026ef565b5b6000620027828482850162002742565b91505092915050565b6000819050919050565b620027a0816200278b565b8114620027ac57600080fd5b50565b600081359050620027c08162002795565b92915050565b6000819050919050565b620027db81620027c6565b8114620027e757600080fd5b50565b600081359050620027fb81620027d0565b92915050565b600080604083850312156200281b576200281a620026ef565b5b60006200282b85828601620027af565b92505060206200283e85828601620027ea565b9150509250929050565b600081519050919050565b600082825260208201905092915050565b6000819050602082019050919050565b6200287f8162002714565b82525050565b600062002893838362002874565b60208301905092915050565b6000602082019050919050565b6000620028b98262002848565b620028c5818562002853565b9350620028d28362002864565b8060005b8381101562002909578151620028ed888262002885565b9750620028fa836200289f565b925050600181019050620028d6565b5085935050505092915050565b60006020820190508181036000830152620029328184620028ac565b905092915050565b600060208284031215620029535762002952620026ef565b5b60006200296384828501620027ea565b91505092915050565b60006fffffffffffffffffffffffffffffffff82169050919050565b62002993816200296c565b81146200299f57600080fd5b50565b600081359050620029b38162002988565b92915050565b60008060008060808587031215620029d657620029d5620026ef565b5b6000620029e687828801620029a2565b9450506020620029f987828801620027ea565b935050604062002a0c8782880162002742565b925050606062002a1f87828801620027ea565b91505092959194509250565b60008115159050919050565b62002a428162002a2b565b82525050565b600060208201905062002a5f600083018462002a37565b92915050565b62002a708162002714565b82525050565b600060208201905062002a8d600083018462002a65565b92915050565b62002a9e816200296c565b82525050565b62002aaf81620027c6565b82525050565b60006101408201905062002acd600083018d62002a65565b62002adc602083018c62002a93565b62002aeb604083018b62002a93565b62002afa606083018a62002aa4565b62002b09608083018962002aa4565b62002b1860a083018862002aa4565b62002b2760c083018762002a65565b62002b3660e083018662002a65565b62002b4661010083018562002aa4565b62002b5661012083018462002aa4565b9b9a5050505050505050505050565b600082825260208201905092915050565b7f536f75726365206d75737420626520746865206f7261636c65206f662074686560008201527f2072657175657374000000000000000000000000000000000000000000000000602082015250565b600062002bd460288362002b65565b915062002be18262002b76565b604082019050919050565b6000602082019050818103600083015262002c078162002bc5565b9050919050565b7f4e487b7100000000000000000000000000000000000000000000000000000000600052604160045260246000fd5b7f4e487b7100000000000000000000000000000000000000000000000000000000600052603260045260246000fd5b7f4e487b7100000000000000000000000000000000000000000000000000000000600052601160045260246000fd5b600062002ca882620027c6565b91507fffffffffffffffffffffffffffffffffffffffffffffffffffffffffffffffff82141562002cde5762002cdd62002c6c565b5b600182019050919050565b7f416d6f756e74206d7573742067726561746572207468616e2030000000000000600082015250565b600062002d21601a8362002b65565b915062002d2e8262002ce9565b602082019050919050565b6000602082019050818103600083015262002d548162002d12565b9050919050565b7f4d7573742062652070726f706f736564206f776e657200000000000000000000600082015250565b600062002d9360168362002b65565b915062002da08262002d5b565b602082019050919050565b6000602082019050818103600083015262002dc68162002d84565b9050919050565b7f4e465420436f6c6c656374696f6e206e6f742077686974656c69737465640000600082015250565b600062002e05601e8362002b65565b915062002e128262002dcd565b602082019050919050565b6000602082019050818103600083015262002e388162002df6565b9050919050565b600062002e4c82620027c6565b915062002e5983620027c6565b9250817fffffffffffffffffffffffffffffffffffffffffffffffffffffffffffffffff048311821515161562002e955762002e9462002c6c565b5b828202905092915050565b7f4e487b7100000000000000000000000000000000000000000000000000000000600052601260045260246000fd5b600062002edc82620027c6565b915062002ee983620027c6565b92508262002efc5762002efb62002ea0565b5b828204905092915050565b7f4578636565642035302520666c6f6f7220707269636500000000000000000000600082015250565b600062002f3f60168362002b65565b915062002f4c8262002f07565b602082019050919050565b6000602082019050818103600083015262002f728162002f30565b9050919050565b60008151905062002f8a81620027d0565b92915050565b60006020828403121562002fa95762002fa8620026ef565b5b600062002fb98482850162002f79565b91505092915050565b7f4e6f7420656e6f756768206c6971756964697479210000000000000000000000600082015250565b600062002ffa60158362002b65565b9150620030078262002fc2565b602082019050919050565b600060208201905081810360008301526200302d8162002feb565b9050919050565b60006200304182620027c6565b91506200304e83620027c6565b9250827fffffffffffffffffffffffffffffffffffffffffffffffffffffffffffffffff0382111562003086576200308562002c6c565b5b828201905092915050565b600061010082019050620030a9600083018b62002a65565b620030b8602083018a62002a93565b620030c7604083018962002aa4565b620030d6606083018862002a93565b620030e5608083018762002aa4565b620030f460a083018662002a65565b6200310360c083018562002a65565b6200311260e083018462002aa4565b9998505050505050505050565b600060608201905062003136600083018662002a65565b62003145602083018562002a65565b62003154604083018462002aa4565b949350505050565b600060408201905062003173600083018562002a65565b62003182602083018462002aa4565b9392505050565b620031948162002a2b565b8114620031a057600080fd5b50565b600081519050620031b48162003189565b92915050565b600060208284031215620031d357620031d2620026ef565b5b6000620031e384828501620031a3565b91505092915050565b7f4578636565642062616c616e6365000000000000000000000000000000000000600082015250565b600062003224600e8362002b65565b91506200323182620031ec565b602082019050919050565b60006020820190508181036000830152620032578162003215565b9050919050565b60006200326b82620027c6565b91506200327883620027c6565b9250828210156200328e576200328d62002c6c565b5b828203905092915050565b600081519050620032aa8162002728565b92915050565b600060208284031215620032c957620032c8620026ef565b5b6000620032d98482850162003299565b91505092915050565b600081519050620032f38162002988565b92915050565b600060208284031215620033125762003311620026ef565b5b60006200332284828501620032e2565b91505092915050565b7f4f6e6c792063616c6c61626c65206279206f776e657200000000000000000000600082015250565b60006200336360168362002b65565b915062003370826200332b565b602082019050919050565b60006020820190508181036000830152620033968162003354565b9050919050565b7f43616e6e6f74207472616e7366657220746f2073656c66000000000000000000600082015250565b6000620033d560178362002b65565b9150620033e2826200339d565b602082019050919050565b600060208201905081810360008301526200340881620033c6565b9050919050565b6000819050919050565b600062003426826200340f565b915062003433836200340f565b9250827f80000000000000000000000000000000000000000000000000000000000000000182126000841215161562003471576200347062002c6c565b5b827f7fffffffffffffffffffffffffffffffffffffffffffffffffffffffffffffff018213600084121615620034ac57620034ab62002c6c565b5b828203905092915050565b620034c2816200278b565b82525050565b60007fffffffff0000000000000000000000000000000000000000000000000000000082169050919050565b620034ff81620034c8565b82525050565b600081519050919050565b600082825260208201905092915050565b60005b838110156200354157808201518184015260208101905062003524565b8381111562003551576000848401525b50505050565b6000601f19601f8301169050919050565b6000620035758262003505565b62003581818562003510565b93506200359381856020860162003521565b6200359e8162003557565b840191505092915050565b600061010082019050620035c1600083018b62002a65565b620035d0602083018a62002aa4565b620035df6040830189620034b7565b620035ee606083018862002a65565b620035fd6080830187620034f4565b6200360c60a083018662002aa4565b6200361b60c083018562002aa4565b81810360e08301526200362f818462003568565b90509998505050505050505050565b60006200364b82620027c6565b91506200365883620027c6565b9250826200366b576200366a62002ea0565b5b828206905092915050565b60006020820190506200368d600083018462002aa4565b92915050565b6000819050919050565b6000620036be620036b8620036b284620026f4565b62003693565b620026f4565b9050919050565b6000620036d2826200369d565b9050919050565b6000620036e682620036c5565b9050919050565b60008160601b9050919050565b60006200370782620036ed565b9050919050565b60006200371b82620036fa565b9050919050565b620037376200373182620036d9565b6200370e565b82525050565b6000819050919050565b6200375c6200375682620027c6565b6200373d565b82525050565b600062003770828562003722565b60148201915062003782828462003747565b6020820191508190509392505050565b6000606082019050620037a9600083018662002a65565b620037b8602083018562002aa4565b8181036040830152620037cc818462003568565b9050949350505050565b7f756e61626c6520746f207472616e73666572416e6443616c6c20746f206f726160008201527f636c650000000000000000000000000000000000000000000000000000000000602082015250565b60006200383460238362002b65565b91506200384182620037d6565b604082019050919050565b60006020820190508181036000830152620038678162003825565b9050919050565b60008160011c9050919050565b6000808291508390505b6001851115620038cd57808604811115620038a557620038a462002c6c565b5b6001851615620038b55780820291505b8081029050620038c5856200386e565b945062003885565b94509492505050565b600082620038e85760019050620039bb565b81620038f85760009050620039bb565b81600181146200391157600281146200391c5762003952565b6001915050620039bb565b60ff84111562003931576200393062002c6c565b5b8360020a9150848211156200394b576200394a62002c6c565b5b50620039bb565b5060208310610133831016604e8410600b84101617156200398c5782820a90508381111562003986576200398562002c6c565b5b620039bb565b6200399b84848460016200387b565b92509050818404811115620039b557620039b462002c6c565b5b81810290505b9392505050565b6000620039cf82620027c6565b9150620039dc83620027c6565b925062003a0b7fffffffffffffffffffffffffffffffffffffffffffffffffffffffffffffffff8484620038d6565b90509291505056fe60806040523480156200001157600080fd5b50604051620012993803806200129983398181016040528101906200003791906200035b565b87600160006101000a81548173ffffffffffffffffffffffffffffffffffffffff021916908373ffffffffffffffffffffffffffffffffffffffff160217905550620151808762000089919062000453565b600260006101000a8154816fffffffffffffffffffffffffffffffff02191690836fffffffffffffffffffffffffffffffff1602179055508560048190555084600260106101000a8154816fffffffffffffffffffffffffffffffff02191690836fffffffffffffffffffffffffffffffff1602179055508360058190555082600760006101000a81548173ffffffffffffffffffffffffffffffffffffffff021916908373ffffffffffffffffffffffffffffffffffffffff16021790555081600660006101000a81548173ffffffffffffffffffffffffffffffffffffffff021916908373ffffffffffffffffffffffffffffffffffffffff16021790555081600860006101000a81548173ffffffffffffffffffffffffffffffffffffffff021916908373ffffffffffffffffffffffffffffffffffffffff16021790555080600381905550426009819055506000600a60006101000a81548160ff02191690836001811115620002025762000201620004a4565b5b021790555073a6fa4fb5f76172d178d61b04b0ecd319c5d1c0aa6000806101000a81548173ffffffffffffffffffffffffffffffffffffffff021916908373ffffffffffffffffffffffffffffffffffffffff1602179055505050505050505050620004d3565b600080fd5b600073ffffffffffffffffffffffffffffffffffffffff82169050919050565b60006200029b826200026e565b9050919050565b620002ad816200028e565b8114620002b957600080fd5b50565b600081519050620002cd81620002a2565b92915050565b60006fffffffffffffffffffffffffffffffff82169050919050565b620002fa81620002d3565b81146200030657600080fd5b50565b6000815190506200031a81620002ef565b92915050565b6000819050919050565b620003358162000320565b81146200034157600080fd5b50565b60008151905062000355816200032a565b92915050565b600080600080600080600080610100898b0312156200037f576200037e62000269565b5b60006200038f8b828c01620002bc565b9850506020620003a28b828c0162000309565b9750506040620003b58b828c0162000344565b9650506060620003c88b828c0162000309565b9550506080620003db8b828c0162000344565b94505060a0620003ee8b828c01620002bc565b93505060c0620004018b828c01620002bc565b92505060e0620004148b828c0162000344565b9150509295985092959890939650565b7f4e487b7100000000000000000000000000000000000000000000000000000000600052601160045260246000fd5b60006200046082620002d3565b91506200046d83620002d3565b9250816fffffffffffffffffffffffffffffffff048311821515161562000499576200049862000424565b5b828202905092915050565b7f4e487b7100000000000000000000000000000000000000000000000000000000600052602160045260246000fd5b610db680620004e36000396000f3fe6080604052600436106100a75760003560e01c8063ad2e8c9b11610064578063ad2e8c9b146101ae578063bff29cee146101d9578063c828371e14610204578063c89d5b8b1461022f578063d321fe291461025a578063f966ade714610285576100a7565b8063010a38f5146100ac5780631cb0c3e7146100d75780634e69d56014610102578063548405261461012d57806388a6360e146101585780639861f3e514610183575b600080fd5b3480156100b857600080fd5b506100c16102a3565b6040516100ce9190610a8a565b60405180910390f35b3480156100e357600080fd5b506100ec6102ad565b6040516100f99190610ae6565b60405180910390f35b34801561010e57600080fd5b506101176102d7565b6040516101249190610a8a565b60405180910390f35b34801561013957600080fd5b50610142610300565b60405161014f9190610a8a565b60405180910390f35b34801561016457600080fd5b5061016d61030a565b60405161017a9190610ae6565b60405180910390f35b34801561018f57600080fd5b50610198610334565b6040516101a59190610ae6565b60405180910390f35b3480156101ba57600080fd5b506101c361035e565b6040516101d09190610b2c565b60405180910390f35b3480156101e557600080fd5b506101ee610384565b6040516101fb9190610b62565b60405180910390f35b34801561021057600080fd5b506102196106bc565b6040516102269190610a8a565b60405180910390f35b34801561023b57600080fd5b506102446106c6565b6040516102519190610b2c565b60405180910390f35b34801561026657600080fd5b5061026f6106ec565b60405161027c9190610a8a565b60405180910390f35b61028d6106f6565b60405161029a9190610b62565b60405180910390f35b6000600354905090565b6000600160009054906101000a900473ffffffffffffffffffffffffffffffffffffffff16905090565b6000600a60009054906101000a900460ff1660018111156102fb576102fa610b7d565b5b905090565b6000600554905090565b6000600860009054906101000a900473ffffffffffffffffffffffffffffffffffffffff16905090565b6000600760009054906101000a900473ffffffffffffffffffffffffffffffffffffffff16905090565b6000600260009054906101000a90046fffffffffffffffffffffffffffffffff16905090565b6000600160009054906101000a900473ffffffffffffffffffffffffffffffffffffffff1673ffffffffffffffffffffffffffffffffffffffff163373ffffffffffffffffffffffffffffffffffffffff1614156103e157600080fd5b600260009054906101000a90046fffffffffffffffffffffffffffffffff166fffffffffffffffffffffffffffffffff1660095461041f9190610bdb565b42101561042b57600080fd5b6000600181111561043f5761043e610b7d565b5b600a60009054906101000a900460ff16600181111561046157610460610b7d565b5b1461046b57600080fd5b6001600a60006101000a81548160ff0219169083600181111561049157610490610b7d565b5b02179055506000618e94600260109054906101000a90046fffffffffffffffffffffffffffffffff166fffffffffffffffffffffffffffffffff16600260009054906101000a90046fffffffffffffffffffffffffffffffff166fffffffffffffffffffffffffffffffff1660045461050a9190610c31565b6105149190610c31565b61051e9190610cba565b60045461052b9190610bdb565b905060008054906101000a900473ffffffffffffffffffffffffffffffffffffffff1673ffffffffffffffffffffffffffffffffffffffff166323b872dd33600760009054906101000a900473ffffffffffffffffffffffffffffffffffffffff16846040518463ffffffff1660e01b81526004016105ac93929190610ceb565b602060405180830381600087803b1580156105c657600080fd5b505af11580156105da573d6000803e3d6000fd5b505050506040513d601f19601f820116820180604052508101906105fe9190610d53565b50600660009054906101000a900473ffffffffffffffffffffffffffffffffffffffff1673ffffffffffffffffffffffffffffffffffffffff166323b872dd30600760009054906101000a900473ffffffffffffffffffffffffffffffffffffffff166003546040518463ffffffff1660e01b815260040161068293929190610ceb565b600060405180830381600087803b15801561069c57600080fd5b505af11580156106b0573d6000803e3d6000fd5b50505050600191505090565b6000600954905090565b6000600260109054906101000a90046fffffffffffffffffffffffffffffffff16905090565b6000600454905090565b6000600160009054906101000a900473ffffffffffffffffffffffffffffffffffffffff1673ffffffffffffffffffffffffffffffffffffffff163373ffffffffffffffffffffffffffffffffffffffff161461075257600080fd5b6000600181111561076657610765610b7d565b5b600a60009054906101000a900460ff16600181111561078857610787610b7d565b5b1461079257600080fd5b600260009054906101000a90046fffffffffffffffffffffffffffffffff166fffffffffffffffffffffffffffffffff166009546107d09190610bdb565b4211156107dc57600080fd5b6000618e94600260109054906101000a90046fffffffffffffffffffffffffffffffff166fffffffffffffffffffffffffffffffff16600260009054906101000a90046fffffffffffffffffffffffffffffffff166fffffffffffffffffffffffffffffffff166004546108509190610c31565b61085a9190610c31565b6108649190610cba565b6004546108719190610bdb565b90508034101561088057600080fd5b6001600a60006101000a81548160ff021916908360018111156108a6576108a5610b7d565b5b021790555060008054906101000a900473ffffffffffffffffffffffffffffffffffffffff1673ffffffffffffffffffffffffffffffffffffffff166323b872dd33600760009054906101000a900473ffffffffffffffffffffffffffffffffffffffff16846040518463ffffffff1660e01b815260040161092a93929190610ceb565b602060405180830381600087803b15801561094457600080fd5b505af1158015610958573d6000803e3d6000fd5b505050506040513d601f19601f8201168201806040525081019061097c9190610d53565b50600660009054906101000a900473ffffffffffffffffffffffffffffffffffffffff1673ffffffffffffffffffffffffffffffffffffffff166323b872dd30600160009054906101000a900473ffffffffffffffffffffffffffffffffffffffff166003546040518463ffffffff1660e01b8152600401610a0093929190610ceb565b600060405180830381600087803b158015610a1a57600080fd5b505af1158015610a2e573d6000803e3d6000fd5b505050507f13734c048a872bafb1b44c4d3e2aed4897ab8347c9b8259c70d6ef66f5ca42b433604051610a619190610ae6565b60405180910390a1600191505090565b6000819050919050565b610a8481610a71565b82525050565b6000602082019050610a9f6000830184610a7b565b92915050565b600073ffffffffffffffffffffffffffffffffffffffff82169050919050565b6000610ad082610aa5565b9050919050565b610ae081610ac5565b82525050565b6000602082019050610afb6000830184610ad7565b92915050565b60006fffffffffffffffffffffffffffffffff82169050919050565b610b2681610b01565b82525050565b6000602082019050610b416000830184610b1d565b92915050565b60008115159050919050565b610b5c81610b47565b82525050565b6000602082019050610b776000830184610b53565b92915050565b7f4e487b7100000000000000000000000000000000000000000000000000000000600052602160045260246000fd5b7f4e487b7100000000000000000000000000000000000000000000000000000000600052601160045260246000fd5b6000610be682610a71565b9150610bf183610a71565b9250827fffffffffffffffffffffffffffffffffffffffffffffffffffffffffffffffff03821115610c2657610c25610bac565b5b828201905092915050565b6000610c3c82610a71565b9150610c4783610a71565b9250817fffffffffffffffffffffffffffffffffffffffffffffffffffffffffffffffff0483118215151615610c8057610c7f610bac565b5b828202905092915050565b7f4e487b7100000000000000000000000000000000000000000000000000000000600052601260045260246000fd5b6000610cc582610a71565b9150610cd083610a71565b925082610ce057610cdf610c8b565b5b828204905092915050565b6000606082019050610d006000830186610ad7565b610d0d6020830185610ad7565b610d1a6040830184610a7b565b949350505050565b600080fd5b610d3081610b47565b8114610d3b57600080fd5b50565b600081519050610d4d81610d27565b92915050565b600060208284031215610d6957610d68610d22565b5b6000610d7784828501610d3e565b9150509291505056fea264697066735822122054813519b3382fde3ec1a42af1e9d03a2bc3c4d194a336a7e47ffeeda5e72a5664736f6c6343000809003368747470733a2f2f73746f706c696768742e696f2f6d6f636b732f6e6674706f72742f6e6674706f72742f353339333439392f76302f7472616e73616374696f6e732f73746174732f3078303965656163376466663064633330346532356362623762646266616537393834383866633334663f636861696e3d706f6c79676f6ea2646970667358221220297f8fb5388a1489b826fba908c3d5ef80adfeb3f24429c78afb7db6a9b92a8f64736f6c63430008090033",
  "linkReferences": {},
  "deployedLinkReferences": {}
}