{
  "_format": "hh-sol-artifact-1",
  "contractName": "Loan",
  "sourceName": "contracts/Loan.sol",
  "abi": [
    {
      "inputs": [
        {
          "internalType": "address",
          "name": "_borrower",
          "type": "address"
        },
        {
          "internalType": "uint128",
          "name": "_duration",
          "type": "uint128"
        },
        {
          "internalType": "uint256",
          "name": "_amount",
          "type": "uint256"
        },
        {
          "internalType": "uint128",
          "name": "_apr",
          "type": "uint128"
        },
        {
          "internalType": "uint256",
          "name": "_loanId",
          "type": "uint256"
        },
        {
          "internalType": "address",
          "name": "_nftAddress",
          "type": "address"
        },
        {
          "internalType": "uint256",
          "name": "_tokenId",
          "type": "uint256"
        }
      ],
      "stateMutability": "nonpayable",
      "type": "constructor"
    },
    {
      "anonymous": false,
      "inputs": [
        {
          "indexed": false,
          "internalType": "address",
          "name": "lender",
          "type": "address"
        }
      ],
      "name": "ClaimCollateral",
      "type": "event"
    },
    {
      "anonymous": false,
      "inputs": [],
      "name": "LoanCancelled",
      "type": "event"
    },
    {
      "anonymous": false,
      "inputs": [
        {
          "indexed": false,
          "internalType": "address",
          "name": "lender",
          "type": "address"
        },
        {
          "indexed": false,
          "internalType": "uint256",
          "name": "amount",
          "type": "uint256"
        }
      ],
      "name": "LoanFulfilled",
      "type": "event"
    },
    {
      "anonymous": false,
      "inputs": [
        {
          "indexed": false,
          "internalType": "address",
          "name": "withdrawer",
          "type": "address"
        }
      ],
      "name": "RepayLoan",
      "type": "event"
    },
    {
      "inputs": [],
      "name": "cancelLoan",
      "outputs": [
        {
          "internalType": "bool",
          "name": "",
          "type": "bool"
        }
      ],
      "stateMutability": "nonpayable",
      "type": "function"
    },
    {
      "inputs": [],
      "name": "claimCollateral",
      "outputs": [
        {
          "internalType": "bool",
          "name": "",
          "type": "bool"
        }
      ],
      "stateMutability": "nonpayable",
      "type": "function"
    },
    {
      "inputs": [],
      "name": "fulfillLoan",
      "outputs": [
        {
          "internalType": "bool",
          "name": "",
          "type": "bool"
        }
      ],
      "stateMutability": "payable",
      "type": "function"
    },
    {
      "inputs": [],
      "name": "getAPR",
      "outputs": [
        {
          "internalType": "uint128",
          "name": "",
          "type": "uint128"
        }
      ],
      "stateMutability": "view",
      "type": "function"
    },
    {
      "inputs": [],
      "name": "getAmount",
      "outputs": [
        {
          "internalType": "uint256",
          "name": "",
          "type": "uint256"
        }
      ],
      "stateMutability": "view",
      "type": "function"
    },
    {
      "inputs": [],
      "name": "getBorrower",
      "outputs": [
        {
          "internalType": "address",
          "name": "",
          "type": "address"
        }
      ],
      "stateMutability": "view",
      "type": "function"
    },
    {
      "inputs": [],
      "name": "getDuration",
      "outputs": [
        {
          "internalType": "uint128",
          "name": "",
          "type": "uint128"
        }
      ],
      "stateMutability": "view",
      "type": "function"
    },
    {
      "inputs": [],
      "name": "getLender",
      "outputs": [
        {
          "internalType": "address",
          "name": "",
          "type": "address"
        }
      ],
      "stateMutability": "view",
      "type": "function"
    },
    {
      "inputs": [],
      "name": "getLoanId",
      "outputs": [
        {
          "internalType": "uint256",
          "name": "",
          "type": "uint256"
        }
      ],
      "stateMutability": "view",
      "type": "function"
    },
    {
      "inputs": [],
      "name": "getNFT",
      "outputs": [
        {
          "internalType": "address",
          "name": "",
          "type": "address"
        }
      ],
      "stateMutability": "view",
      "type": "function"
    },
    {
      "inputs": [],
      "name": "getStartTime",
      "outputs": [
        {
          "internalType": "uint256",
          "name": "",
          "type": "uint256"
        }
      ],
      "stateMutability": "view",
      "type": "function"
    },
    {
      "inputs": [],
      "name": "getStatus",
      "outputs": [
        {
          "internalType": "uint256",
          "name": "",
          "type": "uint256"
        }
      ],
      "stateMutability": "view",
      "type": "function"
    },
    {
      "inputs": [],
      "name": "getTokenId",
      "outputs": [
        {
          "internalType": "uint256",
          "name": "",
          "type": "uint256"
        }
      ],
      "stateMutability": "view",
      "type": "function"
    },
    {
      "inputs": [],
      "name": "repayLoan",
      "outputs": [
        {
          "internalType": "bool",
          "name": "",
          "type": "bool"
        }
      ],
      "stateMutability": "payable",
      "type": "function"
    }
  ],
  "bytecode": "0x608060405273a6fa4fb5f76172d178d61b04b0ecd319c5d1c0aa6000806101000a81548173ffffffffffffffffffffffffffffffffffffffff021916908373ffffffffffffffffffffffffffffffffffffffff1602179055503480156200006557600080fd5b50604051620015543803806200155483398181016040528101906200008b919062000312565b86600160006101000a81548173ffffffffffffffffffffffffffffffffffffffff021916908373ffffffffffffffffffffffffffffffffffffffff1602179055506201518086620000dd9190620003f4565b600260006101000a8154816fffffffffffffffffffffffffffffffff02191690836fffffffffffffffffffffffffffffffff1602179055508460048190555083600260106101000a8154816fffffffffffffffffffffffffffffffff02191690836fffffffffffffffffffffffffffffffff1602179055508260058190555081600660006101000a81548173ffffffffffffffffffffffffffffffffffffffff021916908373ffffffffffffffffffffffffffffffffffffffff16021790555081600860006101000a81548173ffffffffffffffffffffffffffffffffffffffff021916908373ffffffffffffffffffffffffffffffffffffffff160217905550806003819055506000600a60006101000a81548160ff021916908360038111156200020e576200020d62000445565b5b02179055505050505050505062000474565b600080fd5b600073ffffffffffffffffffffffffffffffffffffffff82169050919050565b6000620002528262000225565b9050919050565b620002648162000245565b81146200027057600080fd5b50565b600081519050620002848162000259565b92915050565b60006fffffffffffffffffffffffffffffffff82169050919050565b620002b1816200028a565b8114620002bd57600080fd5b50565b600081519050620002d181620002a6565b92915050565b6000819050919050565b620002ec81620002d7565b8114620002f857600080fd5b50565b6000815190506200030c81620002e1565b92915050565b600080600080600080600060e0888a03121562000334576200033362000220565b5b6000620003448a828b0162000273565b9750506020620003578a828b01620002c0565b96505060406200036a8a828b01620002fb565b95505060606200037d8a828b01620002c0565b9450506080620003908a828b01620002fb565b93505060a0620003a38a828b0162000273565b92505060c0620003b68a828b01620002fb565b91505092959891949750929550565b7f4e487b7100000000000000000000000000000000000000000000000000000000600052601160045260246000fd5b600062000401826200028a565b91506200040e836200028a565b9250816fffffffffffffffffffffffffffffffff04831182151516156200043a5762000439620003c5565b5b828202905092915050565b7f4e487b7100000000000000000000000000000000000000000000000000000000600052602160045260246000fd5b6110d080620004846000396000f3fe6080604052600436106100dd5760003560e01c8063ad2e8c9b1161007f578063d321fe2911610059578063d321fe2914610290578063d4bec229146102bb578063f7d522d0146102d9578063f966ade714610304576100dd565b8063ad2e8c9b1461020f578063c828371e1461023a578063c89d5b8b14610265576100dd565b806354840526116100bb57806354840526146101635780636f0b0c1c1461018e57806388a6360e146101b95780639861f3e5146101e4576100dd565b8063010a38f5146100e25780631cb0c3e71461010d5780634e69d56014610138575b600080fd5b3480156100ee57600080fd5b506100f7610322565b6040516101049190610d7b565b60405180910390f35b34801561011957600080fd5b5061012261032c565b60405161012f9190610dd7565b60405180910390f35b34801561014457600080fd5b5061014d610356565b60405161015a9190610d7b565b60405180910390f35b34801561016f57600080fd5b5061017861037f565b6040516101859190610d7b565b60405180910390f35b34801561019a57600080fd5b506101a3610389565b6040516101b09190610e0d565b60405180910390f35b3480156101c557600080fd5b506101ce61058d565b6040516101db9190610dd7565b60405180910390f35b3480156101f057600080fd5b506101f96105b7565b6040516102069190610dd7565b60405180910390f35b34801561021b57600080fd5b506102246105e1565b6040516102319190610e53565b60405180910390f35b34801561024657600080fd5b5061024f610607565b60405161025c9190610d7b565b60405180910390f35b34801561027157600080fd5b5061027a610611565b6040516102879190610e53565b60405180910390f35b34801561029c57600080fd5b506102a5610637565b6040516102b29190610d7b565b60405180910390f35b6102c3610641565b6040516102d09190610e0d565b60405180910390f35b3480156102e557600080fd5b506102ee610845565b6040516102fb9190610e0d565b60405180910390f35b61030c6109f4565b6040516103199190610e0d565b60405180910390f35b6000600354905090565b6000600160009054906101000a900473ffffffffffffffffffffffffffffffffffffffff16905090565b6000600a60009054906101000a900460ff16600381111561037a57610379610e6e565b5b905090565b6000600554905090565b6000600760009054906101000a900473ffffffffffffffffffffffffffffffffffffffff1673ffffffffffffffffffffffffffffffffffffffff163373ffffffffffffffffffffffffffffffffffffffff16146103e557600080fd5b600260009054906101000a90046fffffffffffffffffffffffffffffffff166fffffffffffffffffffffffffffffffff166009546104239190610ecc565b42101561042f57600080fd5b6001600381111561044357610442610e6e565b5b600a60009054906101000a900460ff16600381111561046557610464610e6e565b5b1461046f57600080fd5b6003600a60006101000a81548160ff0219169083600381111561049557610494610e6e565b5b0217905550600660009054906101000a900473ffffffffffffffffffffffffffffffffffffffff1673ffffffffffffffffffffffffffffffffffffffff166323b872dd30600760009054906101000a900473ffffffffffffffffffffffffffffffffffffffff166003546040518463ffffffff1660e01b815260040161051d93929190610f22565b600060405180830381600087803b15801561053757600080fd5b505af115801561054b573d6000803e3d6000fd5b505050507f9b6744ea48b6201ba4557556433b4918c21224a028c411ee29f3e022b68123be3360405161057e9190610dd7565b60405180910390a16001905090565b6000600860009054906101000a900473ffffffffffffffffffffffffffffffffffffffff16905090565b6000600760009054906101000a900473ffffffffffffffffffffffffffffffffffffffff16905090565b6000600260009054906101000a90046fffffffffffffffffffffffffffffffff16905090565b6000600954905090565b6000600260109054906101000a90046fffffffffffffffffffffffffffffffff16905090565b6000600454905090565b6000600160009054906101000a900473ffffffffffffffffffffffffffffffffffffffff1673ffffffffffffffffffffffffffffffffffffffff163373ffffffffffffffffffffffffffffffffffffffff16141561069e57600080fd5b600060038111156106b2576106b1610e6e565b5b600a60009054906101000a900460ff1660038111156106d4576106d3610e6e565b5b146106de57600080fd5b33600760006101000a81548173ffffffffffffffffffffffffffffffffffffffff021916908373ffffffffffffffffffffffffffffffffffffffff1602179055506001600a60006101000a81548160ff0219169083600381111561074557610744610e6e565b5b02179055504260098190555060008054906101000a900473ffffffffffffffffffffffffffffffffffffffff1673ffffffffffffffffffffffffffffffffffffffff166323b872dd33306004546040518463ffffffff1660e01b81526004016107b093929190610f22565b602060405180830381600087803b1580156107ca57600080fd5b505af11580156107de573d6000803e3d6000fd5b505050506040513d601f19601f820116820180604052508101906108029190610f8a565b507f25ef9d93ac9b5c1aa3c0b88a922341f175f6780491b0aec43d30925ab66b14d733600454604051610836929190610fb7565b60405180910390a16001905090565b6000600160009054906101000a900473ffffffffffffffffffffffffffffffffffffffff1673ffffffffffffffffffffffffffffffffffffffff163373ffffffffffffffffffffffffffffffffffffffff16146108a157600080fd5b600060038111156108b5576108b4610e6e565b5b600a60009054906101000a900460ff1660038111156108d7576108d6610e6e565b5b146108e157600080fd5b6002600a60006101000a81548160ff0219169083600381111561090757610906610e6e565b5b0217905550600660009054906101000a900473ffffffffffffffffffffffffffffffffffffffff1673ffffffffffffffffffffffffffffffffffffffff166323b872dd30600160009054906101000a900473ffffffffffffffffffffffffffffffffffffffff166003546040518463ffffffff1660e01b815260040161098f93929190610f22565b600060405180830381600087803b1580156109a957600080fd5b505af11580156109bd573d6000803e3d6000fd5b505050507f0c5260e6f0e0d940b0de9d99c8b5b4e103d53585fabb34ab07d37694354e124e60405160405180910390a16001905090565b6000600160009054906101000a900473ffffffffffffffffffffffffffffffffffffffff1673ffffffffffffffffffffffffffffffffffffffff163373ffffffffffffffffffffffffffffffffffffffff1614610a5057600080fd5b60016003811115610a6457610a63610e6e565b5b600a60009054906101000a900460ff166003811115610a8657610a85610e6e565b5b14610a9057600080fd5b600260009054906101000a90046fffffffffffffffffffffffffffffffff166fffffffffffffffffffffffffffffffff16600954610ace9190610ecc565b421115610ada57600080fd5b6000618e94600260109054906101000a90046fffffffffffffffffffffffffffffffff166fffffffffffffffffffffffffffffffff16600260009054906101000a90046fffffffffffffffffffffffffffffffff166fffffffffffffffffffffffffffffffff16600454610b4e9190610fe0565b610b589190610fe0565b610b629190611069565b600454610b6f9190610ecc565b90506003600a60006101000a81548160ff02191690836003811115610b9757610b96610e6e565b5b021790555060008054906101000a900473ffffffffffffffffffffffffffffffffffffffff1673ffffffffffffffffffffffffffffffffffffffff166323b872dd33600760009054906101000a900473ffffffffffffffffffffffffffffffffffffffff16846040518463ffffffff1660e01b8152600401610c1b93929190610f22565b602060405180830381600087803b158015610c3557600080fd5b505af1158015610c49573d6000803e3d6000fd5b505050506040513d601f19601f82011682018060405250810190610c6d9190610f8a565b50600660009054906101000a900473ffffffffffffffffffffffffffffffffffffffff1673ffffffffffffffffffffffffffffffffffffffff166323b872dd30600160009054906101000a900473ffffffffffffffffffffffffffffffffffffffff166003546040518463ffffffff1660e01b8152600401610cf193929190610f22565b600060405180830381600087803b158015610d0b57600080fd5b505af1158015610d1f573d6000803e3d6000fd5b505050507f13734c048a872bafb1b44c4d3e2aed4897ab8347c9b8259c70d6ef66f5ca42b433604051610d529190610dd7565b60405180910390a1600191505090565b6000819050919050565b610d7581610d62565b82525050565b6000602082019050610d906000830184610d6c565b92915050565b600073ffffffffffffffffffffffffffffffffffffffff82169050919050565b6000610dc182610d96565b9050919050565b610dd181610db6565b82525050565b6000602082019050610dec6000830184610dc8565b92915050565b60008115159050919050565b610e0781610df2565b82525050565b6000602082019050610e226000830184610dfe565b92915050565b60006fffffffffffffffffffffffffffffffff82169050919050565b610e4d81610e28565b82525050565b6000602082019050610e686000830184610e44565b92915050565b7f4e487b7100000000000000000000000000000000000000000000000000000000600052602160045260246000fd5b7f4e487b7100000000000000000000000000000000000000000000000000000000600052601160045260246000fd5b6000610ed782610d62565b9150610ee283610d62565b9250827fffffffffffffffffffffffffffffffffffffffffffffffffffffffffffffffff03821115610f1757610f16610e9d565b5b828201905092915050565b6000606082019050610f376000830186610dc8565b610f446020830185610dc8565b610f516040830184610d6c565b949350505050565b600080fd5b610f6781610df2565b8114610f7257600080fd5b50565b600081519050610f8481610f5e565b92915050565b600060208284031215610fa057610f9f610f59565b5b6000610fae84828501610f75565b91505092915050565b6000604082019050610fcc6000830185610dc8565b610fd96020830184610d6c565b9392505050565b6000610feb82610d62565b9150610ff683610d62565b9250817fffffffffffffffffffffffffffffffffffffffffffffffffffffffffffffffff048311821515161561102f5761102e610e9d565b5b828202905092915050565b7f4e487b7100000000000000000000000000000000000000000000000000000000600052601260045260246000fd5b600061107482610d62565b915061107f83610d62565b92508261108f5761108e61103a565b5b82820490509291505056fea264697066735822122036fd8372ab38c9c81271fcef360e6c272a34293a0000be9bb98e49bc48264f8264736f6c63430008090033",
  "linkReferences": {},
  "deployedLinkReferences": {}
}