{
  "_format": "hh-sol-artifact-1",
  "contractName": "LoanManager",
  "sourceName": "contracts/LoanManager.sol",
  "abi": [
    {
      "anonymous": false,
      "inputs": [
        {
          "indexed": true,
          "internalType": "address",
          "name": "previousOwner",
          "type": "address"
        },
        {
          "indexed": true,
          "internalType": "address",
          "name": "newOwner",
          "type": "address"
        }
      ],
      "name": "OwnershipTransferred",
      "type": "event"
    },
    {
      "inputs": [
        {
          "internalType": "address",
          "name": "_nft",
          "type": "address"
        }
      ],
      "name": "addWhitelisted",
      "outputs": [],
      "stateMutability": "nonpayable",
      "type": "function"
    },
    {
      "inputs": [
        {
          "internalType": "uint128",
          "name": "_duration",
          "type": "uint128"
        },
        {
          "internalType": "uint256",
          "name": "_amount",
          "type": "uint256"
        },
        {
          "internalType": "uint128",
          "name": "_apr",
          "type": "uint128"
        },
        {
          "internalType": "address",
          "name": "_nftAddress",
          "type": "address"
        },
        {
          "internalType": "uint256",
          "name": "_tokenId",
          "type": "uint256"
        }
      ],
      "name": "createP2PLoan",
      "outputs": [
        {
          "internalType": "bool",
          "name": "",
          "type": "bool"
        }
      ],
      "stateMutability": "nonpayable",
      "type": "function"
    },
    {
      "inputs": [
        {
          "internalType": "uint256",
          "name": "_loanList",
          "type": "uint256"
        }
      ],
      "name": "getP2PLoanInfo",
      "outputs": [
        {
          "internalType": "address[]",
          "name": "borrower",
          "type": "address[]"
        },
        {
          "internalType": "uint128[]",
          "name": "duration",
          "type": "uint128[]"
        },
        {
          "internalType": "uint128[]",
          "name": "apr",
          "type": "uint128[]"
        },
        {
          "internalType": "uint256[]",
          "name": "tokenIds",
          "type": "uint256[]"
        },
        {
          "internalType": "uint256[]",
          "name": "amount",
          "type": "uint256[]"
        },
        {
          "internalType": "uint256[]",
          "name": "loanIds",
          "type": "uint256[]"
        },
        {
          "internalType": "address[]",
          "name": "lender",
          "type": "address[]"
        },
        {
          "internalType": "address[]",
          "name": "nftAddress",
          "type": "address[]"
        },
        {
          "internalType": "uint256[]",
          "name": "startTime",
          "type": "uint256[]"
        },
        {
          "internalType": "uint256[]",
          "name": "loanState",
          "type": "uint256[]"
        },
        {
          "internalType": "address[]",
          "name": "loanAddr",
          "type": "address[]"
        }
      ],
      "stateMutability": "view",
      "type": "function"
    },
    {
      "inputs": [],
      "name": "getP2PLoans",
      "outputs": [
        {
          "internalType": "address[]",
          "name": "_loans",
          "type": "address[]"
        }
      ],
      "stateMutability": "view",
      "type": "function"
    },
    {
      "inputs": [
        {
          "internalType": "uint256",
          "name": "_id",
          "type": "uint256"
        }
      ],
      "name": "getSpecificLoanById",
      "outputs": [
        {
          "internalType": "address",
          "name": "borrower",
          "type": "address"
        },
        {
          "internalType": "uint128",
          "name": "duration",
          "type": "uint128"
        },
        {
          "internalType": "uint128",
          "name": "apr",
          "type": "uint128"
        },
        {
          "internalType": "uint256",
          "name": "tokenIds",
          "type": "uint256"
        },
        {
          "internalType": "uint256",
          "name": "amount",
          "type": "uint256"
        },
        {
          "internalType": "uint256",
          "name": "loanIds",
          "type": "uint256"
        },
        {
          "internalType": "address",
          "name": "lender",
          "type": "address"
        },
        {
          "internalType": "address",
          "name": "nftAddress",
          "type": "address"
        },
        {
          "internalType": "uint256",
          "name": "startTime",
          "type": "uint256"
        },
        {
          "internalType": "uint256",
          "name": "loanState",
          "type": "uint256"
        },
        {
          "internalType": "address",
          "name": "loanAddr",
          "type": "address"
        }
      ],
      "stateMutability": "view",
      "type": "function"
    },
    {
      "inputs": [],
      "name": "getTotalLoan",
      "outputs": [
        {
          "internalType": "uint256",
          "name": "",
          "type": "uint256"
        }
      ],
      "stateMutability": "view",
      "type": "function"
    },
    {
      "inputs": [],
      "name": "owner",
      "outputs": [
        {
          "internalType": "address",
          "name": "",
          "type": "address"
        }
      ],
      "stateMutability": "view",
      "type": "function"
    },
    {
      "inputs": [
        {
          "internalType": "address",
          "name": "_nft",
          "type": "address"
        }
      ],
      "name": "removeWhitelist",
      "outputs": [],
      "stateMutability": "nonpayable",
      "type": "function"
    },
    {
      "inputs": [],
      "name": "renounceOwnership",
      "outputs": [],
      "stateMutability": "nonpayable",
      "type": "function"
    },
    {
      "inputs": [
        {
          "internalType": "address",
          "name": "newOwner",
          "type": "address"
        }
      ],
      "name": "transferOwnership",
      "outputs": [],
      "stateMutability": "nonpayable",
      "type": "function"
    }
  ],
  "bytecode": "0x60806040523480156200001157600080fd5b5062000032620000266200003860201b60201c565b6200004060201b60201c565b62000104565b600033905090565b60008060009054906101000a900473ffffffffffffffffffffffffffffffffffffffff169050816000806101000a81548173ffffffffffffffffffffffffffffffffffffffff021916908373ffffffffffffffffffffffffffffffffffffffff1602179055508173ffffffffffffffffffffffffffffffffffffffff168173ffffffffffffffffffffffffffffffffffffffff167f8be0079c531659141344cd1fd0a4f28419497f9722a3daafe3b4186f6b6457e060405160405180910390a35050565b613d9880620001146000396000f3fe60806040523480156200001157600080fd5b5060043610620000ac5760003560e01c80638da5cb5b116200006f5780638da5cb5b146200015f578063a9d769da1462000181578063ad385eb314620001c1578063efc1221914620001f7578063f2fde38b146200021957620000ac565b806310154bad14620000b15780632929c6e614620000d1578063715018a614620000f357806377e0bce914620000ff57806378c8cda7146200013f575b600080fd5b620000cf6004803603810190620000c9919062001d8b565b62000239565b005b620000db6200029e565b604051620000ea919062001dd8565b60405180910390f35b620000fd620002a8565b005b6200011d600480360381019062000117919062001e26565b620002c0565b604051620001369b9a9998979695949392919062001e96565b60405180910390f35b6200015d600480360381019062000157919062001d8b565b62000a3c565b005b6200016962000aa1565b60405162000178919062001f57565b60405180910390f35b6200019f600480360381019062000199919062001e26565b62000aca565b604051620001b89b9a99989796959493929190620021de565b60405180910390f35b620001df6004803603810190620001d991906200231d565b62001832565b604051620001ee9190620023c2565b60405180910390f35b6200020162001a38565b604051620002109190620023df565b60405180910390f35b62000237600480360381019062000231919062001d8b565b62001b37565b005b6200024362001bc2565b6001600360008373ffffffffffffffffffffffffffffffffffffffff1673ffffffffffffffffffffffffffffffffffffffff16815260200190815260200160002060006101000a81548160ff02191690831515021790555050565b6000600154905090565b620002b262001bc2565b620002be600062001c47565b565b6000806000806000806000806000806000600260008d815260200190815260200160002060009054906101000a900473ffffffffffffffffffffffffffffffffffffffff1673ffffffffffffffffffffffffffffffffffffffff16631cb0c3e76040518163ffffffff1660e01b815260040160206040518083038186803b1580156200034b57600080fd5b505afa15801562000360573d6000803e3d6000fd5b505050506040513d601f19601f820116820180604052508101906200038691906200241a565b9a50600260008d815260200190815260200160002060009054906101000a900473ffffffffffffffffffffffffffffffffffffffff1673ffffffffffffffffffffffffffffffffffffffff1663ad2e8c9b6040518163ffffffff1660e01b815260040160206040518083038186803b1580156200040257600080fd5b505afa15801562000417573d6000803e3d6000fd5b505050506040513d601f19601f820116820180604052508101906200043d919062002463565b9950600260008d815260200190815260200160002060009054906101000a900473ffffffffffffffffffffffffffffffffffffffff1673ffffffffffffffffffffffffffffffffffffffff1663c89d5b8b6040518163ffffffff1660e01b815260040160206040518083038186803b158015620004b957600080fd5b505afa158015620004ce573d6000803e3d6000fd5b505050506040513d601f19601f82011682018060405250810190620004f4919062002463565b9850600260008d815260200190815260200160002060009054906101000a900473ffffffffffffffffffffffffffffffffffffffff1673ffffffffffffffffffffffffffffffffffffffff1663010a38f56040518163ffffffff1660e01b815260040160206040518083038186803b1580156200057057600080fd5b505afa15801562000585573d6000803e3d6000fd5b505050506040513d601f19601f82011682018060405250810190620005ab9190620024ac565b9750600260008d815260200190815260200160002060009054906101000a900473ffffffffffffffffffffffffffffffffffffffff1673ffffffffffffffffffffffffffffffffffffffff1663d321fe296040518163ffffffff1660e01b815260040160206040518083038186803b1580156200062757600080fd5b505afa1580156200063c573d6000803e3d6000fd5b505050506040513d601f19601f82011682018060405250810190620006629190620024ac565b9650600260008d815260200190815260200160002060009054906101000a900473ffffffffffffffffffffffffffffffffffffffff1673ffffffffffffffffffffffffffffffffffffffff1663548405266040518163ffffffff1660e01b815260040160206040518083038186803b158015620006de57600080fd5b505afa158015620006f3573d6000803e3d6000fd5b505050506040513d601f19601f82011682018060405250810190620007199190620024ac565b9550600260008d815260200190815260200160002060009054906101000a900473ffffffffffffffffffffffffffffffffffffffff1673ffffffffffffffffffffffffffffffffffffffff16639861f3e56040518163ffffffff1660e01b815260040160206040518083038186803b1580156200079557600080fd5b505afa158015620007aa573d6000803e3d6000fd5b505050506040513d601f19601f82011682018060405250810190620007d091906200241a565b9450600260008d815260200190815260200160002060009054906101000a900473ffffffffffffffffffffffffffffffffffffffff1673ffffffffffffffffffffffffffffffffffffffff166388a6360e6040518163ffffffff1660e01b815260040160206040518083038186803b1580156200084c57600080fd5b505afa15801562000861573d6000803e3d6000fd5b505050506040513d601f19601f820116820180604052508101906200088791906200241a565b9350600260008d815260200190815260200160002060009054906101000a900473ffffffffffffffffffffffffffffffffffffffff1673ffffffffffffffffffffffffffffffffffffffff1663c828371e6040518163ffffffff1660e01b815260040160206040518083038186803b1580156200090357600080fd5b505afa15801562000918573d6000803e3d6000fd5b505050506040513d601f19601f820116820180604052508101906200093e9190620024ac565b9250600260008d815260200190815260200160002060009054906101000a900473ffffffffffffffffffffffffffffffffffffffff1673ffffffffffffffffffffffffffffffffffffffff16634e69d5606040518163ffffffff1660e01b815260040160206040518083038186803b158015620009ba57600080fd5b505afa158015620009cf573d6000803e3d6000fd5b505050506040513d601f19601f82011682018060405250810190620009f59190620024ac565b9150600260008d815260200190815260200160002060009054906101000a900473ffffffffffffffffffffffffffffffffffffffff16905091939597999b90929496989a50565b62000a4662001bc2565b6000600360008373ffffffffffffffffffffffffffffffffffffffff1673ffffffffffffffffffffffffffffffffffffffff16815260200190815260200160002060006101000a81548160ff02191690831515021790555050565b60008060009054906101000a900473ffffffffffffffffffffffffffffffffffffffff16905090565b60608060608060608060608060608060608b67ffffffffffffffff81111562000af85762000af7620024de565b5b60405190808252806020026020018201604052801562000b275781602001602082028036833780820191505090505b509a508b67ffffffffffffffff81111562000b475762000b46620024de565b5b60405190808252806020026020018201604052801562000b765781602001602082028036833780820191505090505b5099508b67ffffffffffffffff81111562000b965762000b95620024de565b5b60405190808252806020026020018201604052801562000bc55781602001602082028036833780820191505090505b5098508b67ffffffffffffffff81111562000be55762000be4620024de565b5b60405190808252806020026020018201604052801562000c145781602001602082028036833780820191505090505b5097508b67ffffffffffffffff81111562000c345762000c33620024de565b5b60405190808252806020026020018201604052801562000c635781602001602082028036833780820191505090505b5096508b67ffffffffffffffff81111562000c835762000c82620024de565b5b60405190808252806020026020018201604052801562000cb25781602001602082028036833780820191505090505b5095508b67ffffffffffffffff81111562000cd25762000cd1620024de565b5b60405190808252806020026020018201604052801562000d015781602001602082028036833780820191505090505b5094508b67ffffffffffffffff81111562000d215762000d20620024de565b5b60405190808252806020026020018201604052801562000d505781602001602082028036833780820191505090505b5093508b67ffffffffffffffff81111562000d705762000d6f620024de565b5b60405190808252806020026020018201604052801562000d9f5781602001602082028036833780820191505090505b5092508b67ffffffffffffffff81111562000dbf5762000dbe620024de565b5b60405190808252806020026020018201604052801562000dee5781602001602082028036833780820191505090505b5091508b67ffffffffffffffff81111562000e0e5762000e0d620024de565b5b60405190808252806020026020018201604052801562000e3d5781602001602082028036833780820191505090505b50905060005b8c81101562001822576002600082815260200190815260200160002060009054906101000a900473ffffffffffffffffffffffffffffffffffffffff1673ffffffffffffffffffffffffffffffffffffffff16631cb0c3e76040518163ffffffff1660e01b815260040160206040518083038186803b15801562000ec657600080fd5b505afa15801562000edb573d6000803e3d6000fd5b505050506040513d601f19601f8201168201806040525081019062000f0191906200241a565b8c828151811062000f175762000f166200250d565b5b602002602001019073ffffffffffffffffffffffffffffffffffffffff16908173ffffffffffffffffffffffffffffffffffffffff16815250506002600082815260200190815260200160002060009054906101000a900473ffffffffffffffffffffffffffffffffffffffff1673ffffffffffffffffffffffffffffffffffffffff1663ad2e8c9b6040518163ffffffff1660e01b815260040160206040518083038186803b15801562000fcb57600080fd5b505afa15801562000fe0573d6000803e3d6000fd5b505050506040513d601f19601f8201168201806040525081019062001006919062002463565b8b82815181106200101c576200101b6200250d565b5b60200260200101906fffffffffffffffffffffffffffffffff1690816fffffffffffffffffffffffffffffffff16815250506002600082815260200190815260200160002060009054906101000a900473ffffffffffffffffffffffffffffffffffffffff1673ffffffffffffffffffffffffffffffffffffffff1663c89d5b8b6040518163ffffffff1660e01b815260040160206040518083038186803b158015620010c857600080fd5b505afa158015620010dd573d6000803e3d6000fd5b505050506040513d601f19601f8201168201806040525081019062001103919062002463565b8a82815181106200111957620011186200250d565b5b60200260200101906fffffffffffffffffffffffffffffffff1690816fffffffffffffffffffffffffffffffff16815250506002600082815260200190815260200160002060009054906101000a900473ffffffffffffffffffffffffffffffffffffffff1673ffffffffffffffffffffffffffffffffffffffff1663010a38f56040518163ffffffff1660e01b815260040160206040518083038186803b158015620011c557600080fd5b505afa158015620011da573d6000803e3d6000fd5b505050506040513d601f19601f82011682018060405250810190620012009190620024ac565b8982815181106200121657620012156200250d565b5b6020026020010181815250506002600082815260200190815260200160002060009054906101000a900473ffffffffffffffffffffffffffffffffffffffff1673ffffffffffffffffffffffffffffffffffffffff1663d321fe296040518163ffffffff1660e01b815260040160206040518083038186803b1580156200129c57600080fd5b505afa158015620012b1573d6000803e3d6000fd5b505050506040513d601f19601f82011682018060405250810190620012d79190620024ac565b888281518110620012ed57620012ec6200250d565b5b6020026020010181815250506002600082815260200190815260200160002060009054906101000a900473ffffffffffffffffffffffffffffffffffffffff1673ffffffffffffffffffffffffffffffffffffffff1663548405266040518163ffffffff1660e01b815260040160206040518083038186803b1580156200137357600080fd5b505afa15801562001388573d6000803e3d6000fd5b505050506040513d601f19601f82011682018060405250810190620013ae9190620024ac565b878281518110620013c457620013c36200250d565b5b6020026020010181815250506002600082815260200190815260200160002060009054906101000a900473ffffffffffffffffffffffffffffffffffffffff1673ffffffffffffffffffffffffffffffffffffffff16639861f3e56040518163ffffffff1660e01b815260040160206040518083038186803b1580156200144a57600080fd5b505afa1580156200145f573d6000803e3d6000fd5b505050506040513d601f19601f820116820180604052508101906200148591906200241a565b8682815181106200149b576200149a6200250d565b5b602002602001019073ffffffffffffffffffffffffffffffffffffffff16908173ffffffffffffffffffffffffffffffffffffffff16815250506002600082815260200190815260200160002060009054906101000a900473ffffffffffffffffffffffffffffffffffffffff1673ffffffffffffffffffffffffffffffffffffffff166388a6360e6040518163ffffffff1660e01b815260040160206040518083038186803b1580156200154f57600080fd5b505afa15801562001564573d6000803e3d6000fd5b505050506040513d601f19601f820116820180604052508101906200158a91906200241a565b858281518110620015a0576200159f6200250d565b5b602002602001019073ffffffffffffffffffffffffffffffffffffffff16908173ffffffffffffffffffffffffffffffffffffffff16815250506002600082815260200190815260200160002060009054906101000a900473ffffffffffffffffffffffffffffffffffffffff1673ffffffffffffffffffffffffffffffffffffffff1663c828371e6040518163ffffffff1660e01b815260040160206040518083038186803b1580156200165457600080fd5b505afa15801562001669573d6000803e3d6000fd5b505050506040513d601f19601f820116820180604052508101906200168f9190620024ac565b848281518110620016a557620016a46200250d565b5b6020026020010181815250506002600082815260200190815260200160002060009054906101000a900473ffffffffffffffffffffffffffffffffffffffff1673ffffffffffffffffffffffffffffffffffffffff16634e69d5606040518163ffffffff1660e01b815260040160206040518083038186803b1580156200172b57600080fd5b505afa15801562001740573d6000803e3d6000fd5b505050506040513d601f19601f82011682018060405250810190620017669190620024ac565b8382815181106200177c576200177b6200250d565b5b6020026020010181815250506002600082815260200190815260200160002060009054906101000a900473ffffffffffffffffffffffffffffffffffffffff16828281518110620017d257620017d16200250d565b5b602002602001019073ffffffffffffffffffffffffffffffffffffffff16908173ffffffffffffffffffffffffffffffffffffffff1681525050808062001819906200256b565b91505062000e43565b5091939597999b90929496989a50565b600082600360008273ffffffffffffffffffffffffffffffffffffffff1673ffffffffffffffffffffffffffffffffffffffff16815260200190815260200160002060009054906101000a900460ff16620018c4576040517f08c379a0000000000000000000000000000000000000000000000000000000008152600401620018bb906200261a565b60405180910390fd5b60008611620018d257600080fd5b6001876fffffffffffffffffffffffffffffffff161015620018f357600080fd5b60006001549050600160008154809291906200190f906200256b565b9190505550600033898989858a8a6040516200192b9062001d13565b6200193d97969594939291906200263c565b604051809103906000f0801580156200195a573d6000803e3d6000fd5b50905060008690508073ffffffffffffffffffffffffffffffffffffffff166323b872dd3384896040518463ffffffff1660e01b8152600401620019a193929190620026b9565b600060405180830381600087803b158015620019bc57600080fd5b505af1158015620019d1573d6000803e3d6000fd5b50505050816002600085815260200190815260200160002060006101000a81548173ffffffffffffffffffffffffffffffffffffffff021916908373ffffffffffffffffffffffffffffffffffffffff160217905550600194505050505095945050505050565b606060015467ffffffffffffffff81111562001a595762001a58620024de565b5b60405190808252806020026020018201604052801562001a885781602001602082028036833780820191505090505b50905060005b60015481101562001b33576002600082815260200190815260200160002060009054906101000a900473ffffffffffffffffffffffffffffffffffffffff1682828151811062001ae35762001ae26200250d565b5b602002602001019073ffffffffffffffffffffffffffffffffffffffff16908173ffffffffffffffffffffffffffffffffffffffff1681525050808062001b2a906200256b565b91505062001a8e565b5090565b62001b4162001bc2565b600073ffffffffffffffffffffffffffffffffffffffff168173ffffffffffffffffffffffffffffffffffffffff16141562001bb4576040517f08c379a000000000000000000000000000000000000000000000000000000000815260040162001bab906200276c565b60405180910390fd5b62001bbf8162001c47565b50565b62001bcc62001d0b565b73ffffffffffffffffffffffffffffffffffffffff1662001bec62000aa1565b73ffffffffffffffffffffffffffffffffffffffff161462001c45576040517f08c379a000000000000000000000000000000000000000000000000000000000815260040162001c3c90620027de565b60405180910390fd5b565b60008060009054906101000a900473ffffffffffffffffffffffffffffffffffffffff169050816000806101000a81548173ffffffffffffffffffffffffffffffffffffffff021916908373ffffffffffffffffffffffffffffffffffffffff1602179055508173ffffffffffffffffffffffffffffffffffffffff168173ffffffffffffffffffffffffffffffffffffffff167f8be0079c531659141344cd1fd0a4f28419497f9722a3daafe3b4186f6b6457e060405160405180910390a35050565b600033905090565b611562806200280183390190565b600080fd5b600073ffffffffffffffffffffffffffffffffffffffff82169050919050565b600062001d538262001d26565b9050919050565b62001d658162001d46565b811462001d7157600080fd5b50565b60008135905062001d858162001d5a565b92915050565b60006020828403121562001da45762001da362001d21565b5b600062001db48482850162001d74565b91505092915050565b6000819050919050565b62001dd28162001dbd565b82525050565b600060208201905062001def600083018462001dc7565b92915050565b62001e008162001dbd565b811462001e0c57600080fd5b50565b60008135905062001e208162001df5565b92915050565b60006020828403121562001e3f5762001e3e62001d21565b5b600062001e4f8482850162001e0f565b91505092915050565b62001e638162001d46565b82525050565b60006fffffffffffffffffffffffffffffffff82169050919050565b62001e908162001e69565b82525050565b60006101608201905062001eae600083018e62001e58565b62001ebd602083018d62001e85565b62001ecc604083018c62001e85565b62001edb606083018b62001dc7565b62001eea608083018a62001dc7565b62001ef960a083018962001dc7565b62001f0860c083018862001e58565b62001f1760e083018762001e58565b62001f2761010083018662001dc7565b62001f3761012083018562001dc7565b62001f4761014083018462001e58565b9c9b505050505050505050505050565b600060208201905062001f6e600083018462001e58565b92915050565b600081519050919050565b600082825260208201905092915050565b6000819050602082019050919050565b62001fab8162001d46565b82525050565b600062001fbf838362001fa0565b60208301905092915050565b6000602082019050919050565b600062001fe58262001f74565b62001ff1818562001f7f565b935062001ffe8362001f90565b8060005b838110156200203557815162002019888262001fb1565b9750620020268362001fcb565b92505060018101905062002002565b5085935050505092915050565b600081519050919050565b600082825260208201905092915050565b6000819050602082019050919050565b620020798162001e69565b82525050565b60006200208d83836200206e565b60208301905092915050565b6000602082019050919050565b6000620020b38262002042565b620020bf81856200204d565b9350620020cc836200205e565b8060005b8381101562002103578151620020e788826200207f565b9750620020f48362002099565b925050600181019050620020d0565b5085935050505092915050565b600081519050919050565b600082825260208201905092915050565b6000819050602082019050919050565b620021478162001dbd565b82525050565b60006200215b83836200213c565b60208301905092915050565b6000602082019050919050565b6000620021818262002110565b6200218d81856200211b565b93506200219a836200212c565b8060005b83811015620021d1578151620021b588826200214d565b9750620021c28362002167565b9250506001810190506200219e565b5085935050505092915050565b6000610160820190508181036000830152620021fb818e62001fd8565b9050818103602083015262002211818d620020a6565b9050818103604083015262002227818c620020a6565b905081810360608301526200223d818b62002174565b9050818103608083015262002253818a62002174565b905081810360a083015262002269818962002174565b905081810360c08301526200227f818862001fd8565b905081810360e083015262002295818762001fd8565b9050818103610100830152620022ac818662002174565b9050818103610120830152620022c3818562002174565b9050818103610140830152620022da818462001fd8565b90509c9b505050505050505050505050565b620022f78162001e69565b81146200230357600080fd5b50565b6000813590506200231781620022ec565b92915050565b600080600080600060a086880312156200233c576200233b62001d21565b5b60006200234c8882890162002306565b95505060206200235f8882890162001e0f565b9450506040620023728882890162002306565b9350506060620023858882890162001d74565b9250506080620023988882890162001e0f565b9150509295509295909350565b60008115159050919050565b620023bc81620023a5565b82525050565b6000602082019050620023d96000830184620023b1565b92915050565b60006020820190508181036000830152620023fb818462001fd8565b905092915050565b600081519050620024148162001d5a565b92915050565b60006020828403121562002433576200243262001d21565b5b6000620024438482850162002403565b91505092915050565b6000815190506200245d81620022ec565b92915050565b6000602082840312156200247c576200247b62001d21565b5b60006200248c848285016200244c565b91505092915050565b600081519050620024a68162001df5565b92915050565b600060208284031215620024c557620024c462001d21565b5b6000620024d58482850162002495565b91505092915050565b7f4e487b7100000000000000000000000000000000000000000000000000000000600052604160045260246000fd5b7f4e487b7100000000000000000000000000000000000000000000000000000000600052603260045260246000fd5b7f4e487b7100000000000000000000000000000000000000000000000000000000600052601160045260246000fd5b6000620025788262001dbd565b91507fffffffffffffffffffffffffffffffffffffffffffffffffffffffffffffffff821415620025ae57620025ad6200253c565b5b600182019050919050565b600082825260208201905092915050565b7f4e465420436f6c6c656374696f6e206e6f742077686974656c69737465640000600082015250565b600062002602601e83620025b9565b91506200260f82620025ca565b602082019050919050565b600060208201905081810360008301526200263581620025f3565b9050919050565b600060e08201905062002653600083018a62001e58565b62002662602083018962001e85565b62002671604083018862001dc7565b62002680606083018762001e85565b6200268f608083018662001dc7565b6200269e60a083018562001e58565b620026ad60c083018462001dc7565b98975050505050505050565b6000606082019050620026d0600083018662001e58565b620026df602083018562001e58565b620026ee604083018462001dc7565b949350505050565b7f4f776e61626c653a206e6577206f776e657220697320746865207a65726f206160008201527f6464726573730000000000000000000000000000000000000000000000000000602082015250565b600062002754602683620025b9565b91506200276182620026f6565b604082019050919050565b60006020820190508181036000830152620027878162002745565b9050919050565b7f4f776e61626c653a2063616c6c6572206973206e6f7420746865206f776e6572600082015250565b6000620027c6602083620025b9565b9150620027d3826200278e565b602082019050919050565b60006020820190508181036000830152620027f981620027b7565b905091905056fe608060405273a6fa4fb5f76172d178d61b04b0ecd319c5d1c0aa6000806101000a81548173ffffffffffffffffffffffffffffffffffffffff021916908373ffffffffffffffffffffffffffffffffffffffff1602179055503480156200006557600080fd5b50604051620015623803806200156283398181016040528101906200008b919062000312565b86600160006101000a81548173ffffffffffffffffffffffffffffffffffffffff021916908373ffffffffffffffffffffffffffffffffffffffff1602179055506201518086620000dd9190620003f4565b600260006101000a8154816fffffffffffffffffffffffffffffffff02191690836fffffffffffffffffffffffffffffffff1602179055508460048190555083600260106101000a8154816fffffffffffffffffffffffffffffffff02191690836fffffffffffffffffffffffffffffffff1602179055508260058190555081600660006101000a81548173ffffffffffffffffffffffffffffffffffffffff021916908373ffffffffffffffffffffffffffffffffffffffff16021790555081600860006101000a81548173ffffffffffffffffffffffffffffffffffffffff021916908373ffffffffffffffffffffffffffffffffffffffff160217905550806003819055506000600a60006101000a81548160ff021916908360038111156200020e576200020d62000445565b5b02179055505050505050505062000474565b600080fd5b600073ffffffffffffffffffffffffffffffffffffffff82169050919050565b6000620002528262000225565b9050919050565b620002648162000245565b81146200027057600080fd5b50565b600081519050620002848162000259565b92915050565b60006fffffffffffffffffffffffffffffffff82169050919050565b620002b1816200028a565b8114620002bd57600080fd5b50565b600081519050620002d181620002a6565b92915050565b6000819050919050565b620002ec81620002d7565b8114620002f857600080fd5b50565b6000815190506200030c81620002e1565b92915050565b600080600080600080600060e0888a03121562000334576200033362000220565b5b6000620003448a828b0162000273565b9750506020620003578a828b01620002c0565b96505060406200036a8a828b01620002fb565b95505060606200037d8a828b01620002c0565b9450506080620003908a828b01620002fb565b93505060a0620003a38a828b0162000273565b92505060c0620003b68a828b01620002fb565b91505092959891949750929550565b7f4e487b7100000000000000000000000000000000000000000000000000000000600052601160045260246000fd5b600062000401826200028a565b91506200040e836200028a565b9250816fffffffffffffffffffffffffffffffff04831182151516156200043a5762000439620003c5565b5b828202905092915050565b7f4e487b7100000000000000000000000000000000000000000000000000000000600052602160045260246000fd5b6110de80620004846000396000f3fe6080604052600436106100dd5760003560e01c8063ad2e8c9b1161007f578063d321fe2911610059578063d321fe2914610290578063d4bec229146102bb578063f7d522d0146102d9578063f966ade714610304576100dd565b8063ad2e8c9b1461020f578063c828371e1461023a578063c89d5b8b14610265576100dd565b806354840526116100bb57806354840526146101635780636f0b0c1c1461018e57806388a6360e146101b95780639861f3e5146101e4576100dd565b8063010a38f5146100e25780631cb0c3e71461010d5780634e69d56014610138575b600080fd5b3480156100ee57600080fd5b506100f7610322565b6040516101049190610d89565b60405180910390f35b34801561011957600080fd5b5061012261032c565b60405161012f9190610de5565b60405180910390f35b34801561014457600080fd5b5061014d610356565b60405161015a9190610d89565b60405180910390f35b34801561016f57600080fd5b5061017861037f565b6040516101859190610d89565b60405180910390f35b34801561019a57600080fd5b506101a3610389565b6040516101b09190610e1b565b60405180910390f35b3480156101c557600080fd5b506101ce61058d565b6040516101db9190610de5565b60405180910390f35b3480156101f057600080fd5b506101f96105b7565b6040516102069190610de5565b60405180910390f35b34801561021b57600080fd5b506102246105e1565b6040516102319190610e61565b60405180910390f35b34801561024657600080fd5b5061024f610607565b60405161025c9190610d89565b60405180910390f35b34801561027157600080fd5b5061027a610611565b6040516102879190610e61565b60405180910390f35b34801561029c57600080fd5b506102a5610637565b6040516102b29190610d89565b60405180910390f35b6102c3610641565b6040516102d09190610e1b565b60405180910390f35b3480156102e557600080fd5b506102ee610845565b6040516102fb9190610e1b565b60405180910390f35b61030c6109f4565b6040516103199190610e1b565b60405180910390f35b6000600354905090565b6000600160009054906101000a900473ffffffffffffffffffffffffffffffffffffffff16905090565b6000600a60009054906101000a900460ff16600381111561037a57610379610e7c565b5b905090565b6000600554905090565b6000600760009054906101000a900473ffffffffffffffffffffffffffffffffffffffff1673ffffffffffffffffffffffffffffffffffffffff163373ffffffffffffffffffffffffffffffffffffffff16146103e557600080fd5b600260009054906101000a90046fffffffffffffffffffffffffffffffff166fffffffffffffffffffffffffffffffff166009546104239190610eda565b42101561042f57600080fd5b6001600381111561044357610442610e7c565b5b600a60009054906101000a900460ff16600381111561046557610464610e7c565b5b1461046f57600080fd5b6003600a60006101000a81548160ff0219169083600381111561049557610494610e7c565b5b0217905550600660009054906101000a900473ffffffffffffffffffffffffffffffffffffffff1673ffffffffffffffffffffffffffffffffffffffff166323b872dd30600760009054906101000a900473ffffffffffffffffffffffffffffffffffffffff166003546040518463ffffffff1660e01b815260040161051d93929190610f30565b600060405180830381600087803b15801561053757600080fd5b505af115801561054b573d6000803e3d6000fd5b505050507f9b6744ea48b6201ba4557556433b4918c21224a028c411ee29f3e022b68123be3360405161057e9190610de5565b60405180910390a16001905090565b6000600860009054906101000a900473ffffffffffffffffffffffffffffffffffffffff16905090565b6000600760009054906101000a900473ffffffffffffffffffffffffffffffffffffffff16905090565b6000600260009054906101000a90046fffffffffffffffffffffffffffffffff16905090565b6000600954905090565b6000600260109054906101000a90046fffffffffffffffffffffffffffffffff16905090565b6000600454905090565b6000600160009054906101000a900473ffffffffffffffffffffffffffffffffffffffff1673ffffffffffffffffffffffffffffffffffffffff163373ffffffffffffffffffffffffffffffffffffffff16141561069e57600080fd5b600060038111156106b2576106b1610e7c565b5b600a60009054906101000a900460ff1660038111156106d4576106d3610e7c565b5b146106de57600080fd5b33600760006101000a81548173ffffffffffffffffffffffffffffffffffffffff021916908373ffffffffffffffffffffffffffffffffffffffff1602179055506001600a60006101000a81548160ff0219169083600381111561074557610744610e7c565b5b02179055504260098190555060008054906101000a900473ffffffffffffffffffffffffffffffffffffffff1673ffffffffffffffffffffffffffffffffffffffff166323b872dd33306004546040518463ffffffff1660e01b81526004016107b093929190610f30565b602060405180830381600087803b1580156107ca57600080fd5b505af11580156107de573d6000803e3d6000fd5b505050506040513d601f19601f820116820180604052508101906108029190610f98565b507f25ef9d93ac9b5c1aa3c0b88a922341f175f6780491b0aec43d30925ab66b14d733600454604051610836929190610fc5565b60405180910390a16001905090565b6000600160009054906101000a900473ffffffffffffffffffffffffffffffffffffffff1673ffffffffffffffffffffffffffffffffffffffff163373ffffffffffffffffffffffffffffffffffffffff16146108a157600080fd5b600060038111156108b5576108b4610e7c565b5b600a60009054906101000a900460ff1660038111156108d7576108d6610e7c565b5b146108e157600080fd5b6002600a60006101000a81548160ff0219169083600381111561090757610906610e7c565b5b0217905550600660009054906101000a900473ffffffffffffffffffffffffffffffffffffffff1673ffffffffffffffffffffffffffffffffffffffff166323b872dd30600160009054906101000a900473ffffffffffffffffffffffffffffffffffffffff166003546040518463ffffffff1660e01b815260040161098f93929190610f30565b600060405180830381600087803b1580156109a957600080fd5b505af11580156109bd573d6000803e3d6000fd5b505050507f0c5260e6f0e0d940b0de9d99c8b5b4e103d53585fabb34ab07d37694354e124e60405160405180910390a16001905090565b6000600160009054906101000a900473ffffffffffffffffffffffffffffffffffffffff1673ffffffffffffffffffffffffffffffffffffffff163373ffffffffffffffffffffffffffffffffffffffff1614610a5057600080fd5b60016003811115610a6457610a63610e7c565b5b600a60009054906101000a900460ff166003811115610a8657610a85610e7c565b5b14610a9057600080fd5b600260009054906101000a90046fffffffffffffffffffffffffffffffff166fffffffffffffffffffffffffffffffff16600954610ace9190610eda565b421115610ada57600080fd5b600060646301e13380600260009054906101000a90046fffffffffffffffffffffffffffffffff166fffffffffffffffffffffffffffffffff16600260109054906101000a90046fffffffffffffffffffffffffffffffff166fffffffffffffffffffffffffffffffff16600454610b529190610fee565b610b5c9190610fee565b610b669190611077565b610b709190611077565b600454610b7d9190610eda565b90506003600a60006101000a81548160ff02191690836003811115610ba557610ba4610e7c565b5b021790555060008054906101000a900473ffffffffffffffffffffffffffffffffffffffff1673ffffffffffffffffffffffffffffffffffffffff166323b872dd33600760009054906101000a900473ffffffffffffffffffffffffffffffffffffffff16846040518463ffffffff1660e01b8152600401610c2993929190610f30565b602060405180830381600087803b158015610c4357600080fd5b505af1158015610c57573d6000803e3d6000fd5b505050506040513d601f19601f82011682018060405250810190610c7b9190610f98565b50600660009054906101000a900473ffffffffffffffffffffffffffffffffffffffff1673ffffffffffffffffffffffffffffffffffffffff166323b872dd30600160009054906101000a900473ffffffffffffffffffffffffffffffffffffffff166003546040518463ffffffff1660e01b8152600401610cff93929190610f30565b600060405180830381600087803b158015610d1957600080fd5b505af1158015610d2d573d6000803e3d6000fd5b505050507f13734c048a872bafb1b44c4d3e2aed4897ab8347c9b8259c70d6ef66f5ca42b433604051610d609190610de5565b60405180910390a1600191505090565b6000819050919050565b610d8381610d70565b82525050565b6000602082019050610d9e6000830184610d7a565b92915050565b600073ffffffffffffffffffffffffffffffffffffffff82169050919050565b6000610dcf82610da4565b9050919050565b610ddf81610dc4565b82525050565b6000602082019050610dfa6000830184610dd6565b92915050565b60008115159050919050565b610e1581610e00565b82525050565b6000602082019050610e306000830184610e0c565b92915050565b60006fffffffffffffffffffffffffffffffff82169050919050565b610e5b81610e36565b82525050565b6000602082019050610e766000830184610e52565b92915050565b7f4e487b7100000000000000000000000000000000000000000000000000000000600052602160045260246000fd5b7f4e487b7100000000000000000000000000000000000000000000000000000000600052601160045260246000fd5b6000610ee582610d70565b9150610ef083610d70565b9250827fffffffffffffffffffffffffffffffffffffffffffffffffffffffffffffffff03821115610f2557610f24610eab565b5b828201905092915050565b6000606082019050610f456000830186610dd6565b610f526020830185610dd6565b610f5f6040830184610d7a565b949350505050565b600080fd5b610f7581610e00565b8114610f8057600080fd5b50565b600081519050610f9281610f6c565b92915050565b600060208284031215610fae57610fad610f67565b5b6000610fbc84828501610f83565b91505092915050565b6000604082019050610fda6000830185610dd6565b610fe76020830184610d7a565b9392505050565b6000610ff982610d70565b915061100483610d70565b9250817fffffffffffffffffffffffffffffffffffffffffffffffffffffffffffffffff048311821515161561103d5761103c610eab565b5b828202905092915050565b7f4e487b7100000000000000000000000000000000000000000000000000000000600052601260045260246000fd5b600061108282610d70565b915061108d83610d70565b92508261109d5761109c611048565b5b82820490509291505056fea26469706673582212209ef23eb855fb4f79ff355da067501e45ae5bec5a57e3d5269a17980105bfb9b164736f6c63430008090033a264697066735822122041194a7103b03e00b848563bf02a738b5aa73c48084001db38faaebbfed0eec964736f6c63430008090033",
  "linkReferences": {},
  "deployedLinkReferences": {}
}