{
  "_format": "hh-sol-artifact-1",
  "contractName": "PoolLoan",
  "sourceName": "contracts/PoolLoan.sol",
  "abi": [
    {
      "inputs": [
        {
          "internalType": "address",
          "name": "_borrower",
          "type": "address"
        },
        {
          "internalType": "uint128",
          "name": "_duration",
          "type": "uint128"
        },
        {
          "internalType": "uint256",
          "name": "_amount",
          "type": "uint256"
        },
        {
          "internalType": "uint128",
          "name": "_apr",
          "type": "uint128"
        },
        {
          "internalType": "uint256",
          "name": "_loanId",
          "type": "uint256"
        },
        {
          "internalType": "address",
          "name": "_lender",
          "type": "address"
        },
        {
          "internalType": "address",
          "name": "_nftAddress",
          "type": "address"
        },
        {
          "internalType": "uint256",
          "name": "_tokenId",
          "type": "uint256"
        }
      ],
      "stateMutability": "nonpayable",
      "type": "constructor"
    },
    {
      "anonymous": false,
      "inputs": [
        {
          "indexed": false,
          "internalType": "address",
          "name": "withdrawer",
          "type": "address"
        }
      ],
      "name": "RepayLoan",
      "type": "event"
    },
    {
      "inputs": [],
      "name": "buyNFT",
      "outputs": [
        {
          "internalType": "bool",
          "name": "",
          "type": "bool"
        }
      ],
      "stateMutability": "nonpayable",
      "type": "function"
    },
    {
      "inputs": [],
      "name": "getAPR",
      "outputs": [
        {
          "internalType": "uint128",
          "name": "",
          "type": "uint128"
        }
      ],
      "stateMutability": "view",
      "type": "function"
    },
    {
      "inputs": [],
      "name": "getAmount",
      "outputs": [
        {
          "internalType": "uint256",
          "name": "",
          "type": "uint256"
        }
      ],
      "stateMutability": "view",
      "type": "function"
    },
    {
      "inputs": [],
      "name": "getBorrower",
      "outputs": [
        {
          "internalType": "address",
          "name": "",
          "type": "address"
        }
      ],
      "stateMutability": "view",
      "type": "function"
    },
    {
      "inputs": [],
      "name": "getDuration",
      "outputs": [
        {
          "internalType": "uint128",
          "name": "",
          "type": "uint128"
        }
      ],
      "stateMutability": "view",
      "type": "function"
    },
    {
      "inputs": [],
      "name": "getLender",
      "outputs": [
        {
          "internalType": "address",
          "name": "",
          "type": "address"
        }
      ],
      "stateMutability": "view",
      "type": "function"
    },
    {
      "inputs": [],
      "name": "getLoanId",
      "outputs": [
        {
          "internalType": "uint256",
          "name": "",
          "type": "uint256"
        }
      ],
      "stateMutability": "view",
      "type": "function"
    },
    {
      "inputs": [],
      "name": "getNFT",
      "outputs": [
        {
          "internalType": "address",
          "name": "",
          "type": "address"
        }
      ],
      "stateMutability": "view",
      "type": "function"
    },
    {
      "inputs": [],
      "name": "getStartTime",
      "outputs": [
        {
          "internalType": "uint256",
          "name": "",
          "type": "uint256"
        }
      ],
      "stateMutability": "view",
      "type": "function"
    },
    {
      "inputs": [],
      "name": "getStatus",
      "outputs": [
        {
          "internalType": "uint256",
          "name": "",
          "type": "uint256"
        }
      ],
      "stateMutability": "view",
      "type": "function"
    },
    {
      "inputs": [],
      "name": "getTokenId",
      "outputs": [
        {
          "internalType": "uint256",
          "name": "",
          "type": "uint256"
        }
      ],
      "stateMutability": "view",
      "type": "function"
    },
    {
      "inputs": [],
      "name": "repayLoan",
      "outputs": [
        {
          "internalType": "bool",
          "name": "",
          "type": "bool"
        }
      ],
      "stateMutability": "payable",
      "type": "function"
    }
  ],
  "bytecode": "0x60806040523480156200001157600080fd5b50604051620012993803806200129983398181016040528101906200003791906200035b565b87600160006101000a81548173ffffffffffffffffffffffffffffffffffffffff021916908373ffffffffffffffffffffffffffffffffffffffff160217905550620151808762000089919062000453565b600260006101000a8154816fffffffffffffffffffffffffffffffff02191690836fffffffffffffffffffffffffffffffff1602179055508560048190555084600260106101000a8154816fffffffffffffffffffffffffffffffff02191690836fffffffffffffffffffffffffffffffff1602179055508360058190555082600760006101000a81548173ffffffffffffffffffffffffffffffffffffffff021916908373ffffffffffffffffffffffffffffffffffffffff16021790555081600660006101000a81548173ffffffffffffffffffffffffffffffffffffffff021916908373ffffffffffffffffffffffffffffffffffffffff16021790555081600860006101000a81548173ffffffffffffffffffffffffffffffffffffffff021916908373ffffffffffffffffffffffffffffffffffffffff16021790555080600381905550426009819055506000600a60006101000a81548160ff02191690836001811115620002025762000201620004a4565b5b021790555073a6fa4fb5f76172d178d61b04b0ecd319c5d1c0aa6000806101000a81548173ffffffffffffffffffffffffffffffffffffffff021916908373ffffffffffffffffffffffffffffffffffffffff1602179055505050505050505050620004d3565b600080fd5b600073ffffffffffffffffffffffffffffffffffffffff82169050919050565b60006200029b826200026e565b9050919050565b620002ad816200028e565b8114620002b957600080fd5b50565b600081519050620002cd81620002a2565b92915050565b60006fffffffffffffffffffffffffffffffff82169050919050565b620002fa81620002d3565b81146200030657600080fd5b50565b6000815190506200031a81620002ef565b92915050565b6000819050919050565b620003358162000320565b81146200034157600080fd5b50565b60008151905062000355816200032a565b92915050565b600080600080600080600080610100898b0312156200037f576200037e62000269565b5b60006200038f8b828c01620002bc565b9850506020620003a28b828c0162000309565b9750506040620003b58b828c0162000344565b9650506060620003c88b828c0162000309565b9550506080620003db8b828c0162000344565b94505060a0620003ee8b828c01620002bc565b93505060c0620004018b828c01620002bc565b92505060e0620004148b828c0162000344565b9150509295985092959890939650565b7f4e487b7100000000000000000000000000000000000000000000000000000000600052601160045260246000fd5b60006200046082620002d3565b91506200046d83620002d3565b9250816fffffffffffffffffffffffffffffffff048311821515161562000499576200049862000424565b5b828202905092915050565b7f4e487b7100000000000000000000000000000000000000000000000000000000600052602160045260246000fd5b610db680620004e36000396000f3fe6080604052600436106100a75760003560e01c8063ad2e8c9b11610064578063ad2e8c9b146101ae578063bff29cee146101d9578063c828371e14610204578063c89d5b8b1461022f578063d321fe291461025a578063f966ade714610285576100a7565b8063010a38f5146100ac5780631cb0c3e7146100d75780634e69d56014610102578063548405261461012d57806388a6360e146101585780639861f3e514610183575b600080fd5b3480156100b857600080fd5b506100c16102a3565b6040516100ce9190610a8a565b60405180910390f35b3480156100e357600080fd5b506100ec6102ad565b6040516100f99190610ae6565b60405180910390f35b34801561010e57600080fd5b506101176102d7565b6040516101249190610a8a565b60405180910390f35b34801561013957600080fd5b50610142610300565b60405161014f9190610a8a565b60405180910390f35b34801561016457600080fd5b5061016d61030a565b60405161017a9190610ae6565b60405180910390f35b34801561018f57600080fd5b50610198610334565b6040516101a59190610ae6565b60405180910390f35b3480156101ba57600080fd5b506101c361035e565b6040516101d09190610b2c565b60405180910390f35b3480156101e557600080fd5b506101ee610384565b6040516101fb9190610b62565b60405180910390f35b34801561021057600080fd5b506102196106bc565b6040516102269190610a8a565b60405180910390f35b34801561023b57600080fd5b506102446106c6565b6040516102519190610b2c565b60405180910390f35b34801561026657600080fd5b5061026f6106ec565b60405161027c9190610a8a565b60405180910390f35b61028d6106f6565b60405161029a9190610b62565b60405180910390f35b6000600354905090565b6000600160009054906101000a900473ffffffffffffffffffffffffffffffffffffffff16905090565b6000600a60009054906101000a900460ff1660018111156102fb576102fa610b7d565b5b905090565b6000600554905090565b6000600860009054906101000a900473ffffffffffffffffffffffffffffffffffffffff16905090565b6000600760009054906101000a900473ffffffffffffffffffffffffffffffffffffffff16905090565b6000600260009054906101000a90046fffffffffffffffffffffffffffffffff16905090565b6000600160009054906101000a900473ffffffffffffffffffffffffffffffffffffffff1673ffffffffffffffffffffffffffffffffffffffff163373ffffffffffffffffffffffffffffffffffffffff1614156103e157600080fd5b600260009054906101000a90046fffffffffffffffffffffffffffffffff166fffffffffffffffffffffffffffffffff1660095461041f9190610bdb565b42101561042b57600080fd5b6000600181111561043f5761043e610b7d565b5b600a60009054906101000a900460ff16600181111561046157610460610b7d565b5b1461046b57600080fd5b6001600a60006101000a81548160ff0219169083600181111561049157610490610b7d565b5b02179055506000618e94600260109054906101000a90046fffffffffffffffffffffffffffffffff166fffffffffffffffffffffffffffffffff16600260009054906101000a90046fffffffffffffffffffffffffffffffff166fffffffffffffffffffffffffffffffff1660045461050a9190610c31565b6105149190610c31565b61051e9190610cba565b60045461052b9190610bdb565b905060008054906101000a900473ffffffffffffffffffffffffffffffffffffffff1673ffffffffffffffffffffffffffffffffffffffff166323b872dd33600760009054906101000a900473ffffffffffffffffffffffffffffffffffffffff16846040518463ffffffff1660e01b81526004016105ac93929190610ceb565b602060405180830381600087803b1580156105c657600080fd5b505af11580156105da573d6000803e3d6000fd5b505050506040513d601f19601f820116820180604052508101906105fe9190610d53565b50600660009054906101000a900473ffffffffffffffffffffffffffffffffffffffff1673ffffffffffffffffffffffffffffffffffffffff166323b872dd30600760009054906101000a900473ffffffffffffffffffffffffffffffffffffffff166003546040518463ffffffff1660e01b815260040161068293929190610ceb565b600060405180830381600087803b15801561069c57600080fd5b505af11580156106b0573d6000803e3d6000fd5b50505050600191505090565b6000600954905090565b6000600260109054906101000a90046fffffffffffffffffffffffffffffffff16905090565b6000600454905090565b6000600160009054906101000a900473ffffffffffffffffffffffffffffffffffffffff1673ffffffffffffffffffffffffffffffffffffffff163373ffffffffffffffffffffffffffffffffffffffff161461075257600080fd5b6000600181111561076657610765610b7d565b5b600a60009054906101000a900460ff16600181111561078857610787610b7d565b5b1461079257600080fd5b600260009054906101000a90046fffffffffffffffffffffffffffffffff166fffffffffffffffffffffffffffffffff166009546107d09190610bdb565b4211156107dc57600080fd5b6000618e94600260109054906101000a90046fffffffffffffffffffffffffffffffff166fffffffffffffffffffffffffffffffff16600260009054906101000a90046fffffffffffffffffffffffffffffffff166fffffffffffffffffffffffffffffffff166004546108509190610c31565b61085a9190610c31565b6108649190610cba565b6004546108719190610bdb565b90508034101561088057600080fd5b6001600a60006101000a81548160ff021916908360018111156108a6576108a5610b7d565b5b021790555060008054906101000a900473ffffffffffffffffffffffffffffffffffffffff1673ffffffffffffffffffffffffffffffffffffffff166323b872dd33600760009054906101000a900473ffffffffffffffffffffffffffffffffffffffff16846040518463ffffffff1660e01b815260040161092a93929190610ceb565b602060405180830381600087803b15801561094457600080fd5b505af1158015610958573d6000803e3d6000fd5b505050506040513d601f19601f8201168201806040525081019061097c9190610d53565b50600660009054906101000a900473ffffffffffffffffffffffffffffffffffffffff1673ffffffffffffffffffffffffffffffffffffffff166323b872dd30600160009054906101000a900473ffffffffffffffffffffffffffffffffffffffff166003546040518463ffffffff1660e01b8152600401610a0093929190610ceb565b600060405180830381600087803b158015610a1a57600080fd5b505af1158015610a2e573d6000803e3d6000fd5b505050507f13734c048a872bafb1b44c4d3e2aed4897ab8347c9b8259c70d6ef66f5ca42b433604051610a619190610ae6565b60405180910390a1600191505090565b6000819050919050565b610a8481610a71565b82525050565b6000602082019050610a9f6000830184610a7b565b92915050565b600073ffffffffffffffffffffffffffffffffffffffff82169050919050565b6000610ad082610aa5565b9050919050565b610ae081610ac5565b82525050565b6000602082019050610afb6000830184610ad7565b92915050565b60006fffffffffffffffffffffffffffffffff82169050919050565b610b2681610b01565b82525050565b6000602082019050610b416000830184610b1d565b92915050565b60008115159050919050565b610b5c81610b47565b82525050565b6000602082019050610b776000830184610b53565b92915050565b7f4e487b7100000000000000000000000000000000000000000000000000000000600052602160045260246000fd5b7f4e487b7100000000000000000000000000000000000000000000000000000000600052601160045260246000fd5b6000610be682610a71565b9150610bf183610a71565b9250827fffffffffffffffffffffffffffffffffffffffffffffffffffffffffffffffff03821115610c2657610c25610bac565b5b828201905092915050565b6000610c3c82610a71565b9150610c4783610a71565b9250817fffffffffffffffffffffffffffffffffffffffffffffffffffffffffffffffff0483118215151615610c8057610c7f610bac565b5b828202905092915050565b7f4e487b7100000000000000000000000000000000000000000000000000000000600052601260045260246000fd5b6000610cc582610a71565b9150610cd083610a71565b925082610ce057610cdf610c8b565b5b828204905092915050565b6000606082019050610d006000830186610ad7565b610d0d6020830185610ad7565b610d1a6040830184610a7b565b949350505050565b600080fd5b610d3081610b47565b8114610d3b57600080fd5b50565b600081519050610d4d81610d27565b92915050565b600060208284031215610d6957610d68610d22565b5b6000610d7784828501610d3e565b9150509291505056fea264697066735822122054813519b3382fde3ec1a42af1e9d03a2bc3c4d194a336a7e47ffeeda5e72a5664736f6c63430008090033",
  "linkReferences": {},
  "deployedLinkReferences": {}
}